{"contracts/secp256k1.sol":{"secp256k":{"abi":[{"constant":true,"inputs":[{"name":"x1","type":"uint256"},{"name":"y1","type":"uint256"},{"name":"x2","type":"uint256"},{"name":"y2","type":"uint256"}],"name":"Add","outputs":[{"name":"x3","type":"uint256"},{"name":"y3","type":"uint256"}],"payable":false,"stateMutability":"view","type":"function"},{"constant":true,"inputs":[{"name":"scalar","type":"uint256"}],"name":"ScalarBaseMult","outputs":[{"name":"qx","type":"uint256"},{"name":"qy","type":"uint256"}],"payable":false,"stateMutability":"view","type":"function"},{"constant":true,"inputs":[{"name":"x1","type":"uint256"},{"name":"y1","type":"uint256"}],"name":"HashToEcc","outputs":[{"name":"qx","type":"uint256"},{"name":"qy","type":"uint256"}],"payable":false,"stateMutability":"view","type":"function"},{"constant":true,"inputs":[{"name":"px","type":"uint256"},{"name":"py","type":"uint256"},{"name":"scalar","type":"uint256"}],"name":"ScalarMult","outputs":[{"name":"qx","type":"uint256"},{"name":"qy","type":"uint256"}],"payable":false,"stateMutability":"view","type":"function"}],"evm":{"bytecode":{"linkReferences":{},"object":"608060405234801561001057600080fd5b50610b75806100206000396000f300608060405260043610610062576000357c0100000000000000000000000000000000000000000000000000000000900463ffffffff16806339cd1f4014610067578063464cb749146100cd5780637f77a40c14610115578063fb88954d14610167575b600080fd5b34801561007357600080fd5b506100b0600480360381019080803590602001909291908035906020019092919080359060200190929190803590602001909291905050506101c3565b604051808381526020018281526020019250505060405180910390f35b3480156100d957600080fd5b506100f86004803603810190808035906020019092919050505061025c565b604051808381526020018281526020019250505060405180910390f35b34801561012157600080fd5b5061014a600480360381019080803590602001909291908035906020019092919050505061032e565b604051808381526020018281526020019250505060405180910390f35b34801561017357600080fd5b506101a6600480360381019080803590602001909291908035906020019092919080359060200190929190505050610423565b604051808381526020018281526020019250505060405180910390f35b60008060008060006101db898960018a8a60016104b8565b8093508194508295505050506101f0816106db565b90507ffffffffffffffffffffffffffffffffffffffffffffffffffffffffefffffc2f80151561021c57fe5b81840994507ffffffffffffffffffffffffffffffffffffffffffffffffffffffffefffffc2f80151561024b57fe5b818309935050505094509492505050565b60008060008060006102b1867f79be667ef9dcbbac55a06295ce870b07029bfcdb2dce28d959f2815b16f817987f483ada7726a3c4655da4fbfc0e1108a8fd17b448a68554199c47d08ffb10d4b860016107cf565b8093508194508295505050506102c6816106db565b90507ffffffffffffffffffffffffffffffffffffffffffffffffffffffffefffffc2f8015156102f257fe5b81840994507ffffffffffffffffffffffffffffffffffffffffffffffffffffffffefffffc2f80151561032157fe5b8183099350505050915091565b60008060008060006103a4878760405180838152602001828152602001925050506040518091039020600190047f79be667ef9dcbbac55a06295ce870b07029bfcdb2dce28d959f2815b16f817987f483ada7726a3c4655da4fbfc0e1108a8fd17b448a68554199c47d08ffb10d4b860016107cf565b8093508194508295505050506103b9816106db565b90507ffffffffffffffffffffffffffffffffffffffffffffffffffffffffefffffc2f8015156103e557fe5b81840994507ffffffffffffffffffffffffffffffffffffffffffffffffffffffffefffffc2f80151561041457fe5b81830993505050509250929050565b600080600080600061043886898960016107cf565b80935081945082955050505061044d816106db565b90507ffffffffffffffffffffffffffffffffffffffffffffffffffffffffefffffc2f80151561047957fe5b81840994507ffffffffffffffffffffffffffffffffffffffffffffffffffffffffefffffc2f8015156104a857fe5b8183099350505050935093915050565b6000806000806000806000808d1480156104d2575060008c145b156104e5578989899650965096506106cb565b60008a1480156104f55750600089145b15610508578c8c8c9650965096506106cb565b898d1480156105165750888c145b15610576576105278d8c8f8e610897565b809450819550505061053d848460036001610897565b8094508195505050610553848460006001610905565b80945081955050506105698c8c60026001610897565b809250819350505061059f565b61058289898e8e6109cb565b80945081955050506105968a898f8e6109cb565b80925081935050505b6105ab84848484610ab3565b80945081955050506105bf84848686610897565b80935081985050506105d387838f8e6109cb565b80935081985050506105e787838c8b6109cb565b80935081985050506105fb8d8c89856109cb565b809250819750505061060f86828686610897565b809250819750505061062386828e8e6109cb565b809250819750505080821415156106c6577ffffffffffffffffffffffffffffffffffffffffffffffffffffffffefffffc2f80151561065e57fe5b81880996507ffffffffffffffffffffffffffffffffffffffffffffffffffffffffefffffc2f80151561068d57fe5b82870995507ffffffffffffffffffffffffffffffffffffffffffffffffffffffffefffffc2f8015156106bc57fe5b81830994506106ca565b8194505b5b5050505096509650969350505050565b60008060008060008060009450600193507ffffffffffffffffffffffffffffffffffffffffffffffffffffffffefffffc2f92508691505b6000821415156107c257818381151561072857fe5b049050837ffffffffffffffffffffffffffffffffffffffffffffffffffffffffefffffc2f80151561075657fe5b7ffffffffffffffffffffffffffffffffffffffffffffffffffffffffefffffc2f80151561078057fe5b8684097ffffffffffffffffffffffffffffffffffffffffffffffffffffffffefffffc2f03870880955081965050508182820284038093508194505050610713565b8495505050505050919050565b6000806000806000806000806000808d96508c95508b94508a935060009250600091506001905060008e1415610818576000806001829250819150809050995099509950610886565b5b6000871415156108765760006001881614151561084b5761083e8383838989896104b8565b8093508194508295505050505b60028781151561085757fe5b049650610865868686610b21565b809650819750829850505050610819565b828282809a50819b50829c505050505b505050505050509450945094915050565b6000807ffffffffffffffffffffffffffffffffffffffffffffffffffffffffefffffc2f8015156108c457fe5b8487097ffffffffffffffffffffffffffffffffffffffffffffffffffffffffefffffc2f8015156108f157fe5b848709809250819350505094509492505050565b6000807ffffffffffffffffffffffffffffffffffffffffffffffffffffffffefffffc2f80151561093257fe5b7ffffffffffffffffffffffffffffffffffffffffffffffffffffffffefffffc2f80151561095c57fe5b8686097ffffffffffffffffffffffffffffffffffffffffffffffffffffffffefffffc2f80151561098957fe5b888609087ffffffffffffffffffffffffffffffffffffffffffffffffffffffffefffffc2f8015156109b757fe5b848709809250819350505094509492505050565b6000807ffffffffffffffffffffffffffffffffffffffffffffffffffffffffefffffc2f8015156109f857fe5b7ffffffffffffffffffffffffffffffffffffffffffffffffffffffffefffffc2f801515610a2257fe5b86867ffffffffffffffffffffffffffffffffffffffffffffffffffffffffefffffc2f03097ffffffffffffffffffffffffffffffffffffffffffffffffffffffffefffffc2f801515610a7157fe5b888609087ffffffffffffffffffffffffffffffffffffffffffffffffffffffffefffffc2f801515610a9f57fe5b848709809250819350505094509492505050565b6000807ffffffffffffffffffffffffffffffffffffffffffffffffffffffffefffffc2f801515610ae057fe5b8387097ffffffffffffffffffffffffffffffffffffffffffffffffffffffffefffffc2f801515610b0d57fe5b858709809250819350505094509492505050565b6000806000610b348686868989896104b8565b809350819450829550505050935093509390505600a165627a7a7230582005c79320ae94b19b15ac8a494b88007639ce010f5c3303191ae01ef4adff674a0029","opcodes":"PUSH1 0x80 PUSH1 0x40 MSTORE CALLVALUE DUP1 ISZERO PUSH2 0x10 JUMPI PUSH1 0x0 DUP1 REVERT JUMPDEST POP PUSH2 0xB75 DUP1 PUSH2 0x20 PUSH1 0x0 CODECOPY PUSH1 0x0 RETURN STOP PUSH1 0x80 PUSH1 0x40 MSTORE PUSH1 0x4 CALLDATASIZE LT PUSH2 0x62 JUMPI PUSH1 0x0 CALLDATALOAD PUSH29 0x100000000000000000000000000000000000000000000000000000000 SWAP1 DIV PUSH4 0xFFFFFFFF AND DUP1 PUSH4 0x39CD1F40 EQ PUSH2 0x67 JUMPI DUP1 PUSH4 0x464CB749 EQ PUSH2 0xCD JUMPI DUP1 PUSH4 0x7F77A40C EQ PUSH2 0x115 JUMPI DUP1 PUSH4 0xFB88954D EQ PUSH2 0x167 JUMPI JUMPDEST PUSH1 0x0 DUP1 REVERT JUMPDEST CALLVALUE DUP1 ISZERO PUSH2 0x73 JUMPI PUSH1 0x0 DUP1 REVERT JUMPDEST POP PUSH2 0xB0 PUSH1 0x4 DUP1 CALLDATASIZE SUB DUP2 ADD SWAP1 DUP1 DUP1 CALLDATALOAD SWAP1 PUSH1 0x20 ADD SWAP1 SWAP3 SWAP2 SWAP1 DUP1 CALLDATALOAD SWAP1 PUSH1 0x20 ADD SWAP1 SWAP3 SWAP2 SWAP1 DUP1 CALLDATALOAD SWAP1 PUSH1 0x20 ADD SWAP1 SWAP3 SWAP2 SWAP1 DUP1 CALLDATALOAD SWAP1 PUSH1 0x20 ADD SWAP1 SWAP3 SWAP2 SWAP1 POP POP POP PUSH2 0x1C3 JUMP JUMPDEST PUSH1 0x40 MLOAD DUP1 DUP4 DUP2 MSTORE PUSH1 0x20 ADD DUP3 DUP2 MSTORE PUSH1 0x20 ADD SWAP3 POP POP POP PUSH1 0x40 MLOAD DUP1 SWAP2 SUB SWAP1 RETURN JUMPDEST CALLVALUE DUP1 ISZERO PUSH2 0xD9 JUMPI PUSH1 0x0 DUP1 REVERT JUMPDEST POP PUSH2 0xF8 PUSH1 0x4 DUP1 CALLDATASIZE SUB DUP2 ADD SWAP1 DUP1 DUP1 CALLDATALOAD SWAP1 PUSH1 0x20 ADD SWAP1 SWAP3 SWAP2 SWAP1 POP POP POP PUSH2 0x25C JUMP JUMPDEST PUSH1 0x40 MLOAD DUP1 DUP4 DUP2 MSTORE PUSH1 0x20 ADD DUP3 DUP2 MSTORE PUSH1 0x20 ADD SWAP3 POP POP POP PUSH1 0x40 MLOAD DUP1 SWAP2 SUB SWAP1 RETURN JUMPDEST CALLVALUE DUP1 ISZERO PUSH2 0x121 JUMPI PUSH1 0x0 DUP1 REVERT JUMPDEST POP PUSH2 0x14A PUSH1 0x4 DUP1 CALLDATASIZE SUB DUP2 ADD SWAP1 DUP1 DUP1 CALLDATALOAD SWAP1 PUSH1 0x20 ADD SWAP1 SWAP3 SWAP2 SWAP1 DUP1 CALLDATALOAD SWAP1 PUSH1 0x20 ADD SWAP1 SWAP3 SWAP2 SWAP1 POP POP POP PUSH2 0x32E JUMP JUMPDEST PUSH1 0x40 MLOAD DUP1 DUP4 DUP2 MSTORE PUSH1 0x20 ADD DUP3 DUP2 MSTORE PUSH1 0x20 ADD SWAP3 POP POP POP PUSH1 0x40 MLOAD DUP1 SWAP2 SUB SWAP1 RETURN JUMPDEST CALLVALUE DUP1 ISZERO PUSH2 0x173 JUMPI PUSH1 0x0 DUP1 REVERT JUMPDEST POP PUSH2 0x1A6 PUSH1 0x4 DUP1 CALLDATASIZE SUB DUP2 ADD SWAP1 DUP1 DUP1 CALLDATALOAD SWAP1 PUSH1 0x20 ADD SWAP1 SWAP3 SWAP2 SWAP1 DUP1 CALLDATALOAD SWAP1 PUSH1 0x20 ADD SWAP1 SWAP3 SWAP2 SWAP1 DUP1 CALLDATALOAD SWAP1 PUSH1 0x20 ADD SWAP1 SWAP3 SWAP2 SWAP1 POP POP POP PUSH2 0x423 JUMP JUMPDEST PUSH1 0x40 MLOAD DUP1 DUP4 DUP2 MSTORE PUSH1 0x20 ADD DUP3 DUP2 MSTORE PUSH1 0x20 ADD SWAP3 POP POP POP PUSH1 0x40 MLOAD DUP1 SWAP2 SUB SWAP1 RETURN JUMPDEST PUSH1 0x0 DUP1 PUSH1 0x0 DUP1 PUSH1 0x0 PUSH2 0x1DB DUP10 DUP10 PUSH1 0x1 DUP11 DUP11 PUSH1 0x1 PUSH2 0x4B8 JUMP JUMPDEST DUP1 SWAP4 POP DUP2 SWAP5 POP DUP3 SWAP6 POP POP POP POP PUSH2 0x1F0 DUP2 PUSH2 0x6DB JUMP JUMPDEST SWAP1 POP PUSH32 0xFFFFFFFFFFFFFFFFFFFFFFFFFFFFFFFFFFFFFFFFFFFFFFFFFFFFFFFEFFFFFC2F DUP1 ISZERO ISZERO PUSH2 0x21C JUMPI INVALID JUMPDEST DUP2 DUP5 MULMOD SWAP5 POP PUSH32 0xFFFFFFFFFFFFFFFFFFFFFFFFFFFFFFFFFFFFFFFFFFFFFFFFFFFFFFFEFFFFFC2F DUP1 ISZERO ISZERO PUSH2 0x24B JUMPI INVALID JUMPDEST DUP2 DUP4 MULMOD SWAP4 POP POP POP POP SWAP5 POP SWAP5 SWAP3 POP POP POP JUMP JUMPDEST PUSH1 0x0 DUP1 PUSH1 0x0 DUP1 PUSH1 0x0 PUSH2 0x2B1 DUP7 PUSH32 0x79BE667EF9DCBBAC55A06295CE870B07029BFCDB2DCE28D959F2815B16F81798 PUSH32 0x483ADA7726A3C4655DA4FBFC0E1108A8FD17B448A68554199C47D08FFB10D4B8 PUSH1 0x1 PUSH2 0x7CF JUMP JUMPDEST DUP1 SWAP4 POP DUP2 SWAP5 POP DUP3 SWAP6 POP POP POP POP PUSH2 0x2C6 DUP2 PUSH2 0x6DB JUMP JUMPDEST SWAP1 POP PUSH32 0xFFFFFFFFFFFFFFFFFFFFFFFFFFFFFFFFFFFFFFFFFFFFFFFFFFFFFFFEFFFFFC2F DUP1 ISZERO ISZERO PUSH2 0x2F2 JUMPI INVALID JUMPDEST DUP2 DUP5 MULMOD SWAP5 POP PUSH32 0xFFFFFFFFFFFFFFFFFFFFFFFFFFFFFFFFFFFFFFFFFFFFFFFFFFFFFFFEFFFFFC2F DUP1 ISZERO ISZERO PUSH2 0x321 JUMPI INVALID JUMPDEST DUP2 DUP4 MULMOD SWAP4 POP POP POP POP SWAP2 POP SWAP2 JUMP JUMPDEST PUSH1 0x0 DUP1 PUSH1 0x0 DUP1 PUSH1 0x0 PUSH2 0x3A4 DUP8 DUP8 PUSH1 0x40 MLOAD DUP1 DUP4 DUP2 MSTORE PUSH1 0x20 ADD DUP3 DUP2 MSTORE PUSH1 0x20 ADD SWAP3 POP POP POP PUSH1 0x40 MLOAD DUP1 SWAP2 SUB SWAP1 KECCAK256 PUSH1 0x1 SWAP1 DIV PUSH32 0x79BE667EF9DCBBAC55A06295CE870B07029BFCDB2DCE28D959F2815B16F81798 PUSH32 0x483ADA7726A3C4655DA4FBFC0E1108A8FD17B448A68554199C47D08FFB10D4B8 PUSH1 0x1 PUSH2 0x7CF JUMP JUMPDEST DUP1 SWAP4 POP DUP2 SWAP5 POP DUP3 SWAP6 POP POP POP POP PUSH2 0x3B9 DUP2 PUSH2 0x6DB JUMP JUMPDEST SWAP1 POP PUSH32 0xFFFFFFFFFFFFFFFFFFFFFFFFFFFFFFFFFFFFFFFFFFFFFFFFFFFFFFFEFFFFFC2F DUP1 ISZERO ISZERO PUSH2 0x3E5 JUMPI INVALID JUMPDEST DUP2 DUP5 MULMOD SWAP5 POP PUSH32 0xFFFFFFFFFFFFFFFFFFFFFFFFFFFFFFFFFFFFFFFFFFFFFFFFFFFFFFFEFFFFFC2F DUP1 ISZERO ISZERO PUSH2 0x414 JUMPI INVALID JUMPDEST DUP2 DUP4 MULMOD SWAP4 POP POP POP POP SWAP3 POP SWAP3 SWAP1 POP JUMP JUMPDEST PUSH1 0x0 DUP1 PUSH1 0x0 DUP1 PUSH1 0x0 PUSH2 0x438 DUP7 DUP10 DUP10 PUSH1 0x1 PUSH2 0x7CF JUMP JUMPDEST DUP1 SWAP4 POP DUP2 SWAP5 POP DUP3 SWAP6 POP POP POP POP PUSH2 0x44D DUP2 PUSH2 0x6DB JUMP JUMPDEST SWAP1 POP PUSH32 0xFFFFFFFFFFFFFFFFFFFFFFFFFFFFFFFFFFFFFFFFFFFFFFFFFFFFFFFEFFFFFC2F DUP1 ISZERO ISZERO PUSH2 0x479 JUMPI INVALID JUMPDEST DUP2 DUP5 MULMOD SWAP5 POP PUSH32 0xFFFFFFFFFFFFFFFFFFFFFFFFFFFFFFFFFFFFFFFFFFFFFFFFFFFFFFFEFFFFFC2F DUP1 ISZERO ISZERO PUSH2 0x4A8 JUMPI INVALID JUMPDEST DUP2 DUP4 MULMOD SWAP4 POP POP POP POP SWAP4 POP SWAP4 SWAP2 POP POP JUMP JUMPDEST PUSH1 0x0 DUP1 PUSH1 0x0 DUP1 PUSH1 0x0 DUP1 PUSH1 0x0 DUP1 DUP14 EQ DUP1 ISZERO PUSH2 0x4D2 JUMPI POP PUSH1 0x0 DUP13 EQ JUMPDEST ISZERO PUSH2 0x4E5 JUMPI DUP10 DUP10 DUP10 SWAP7 POP SWAP7 POP SWAP7 POP PUSH2 0x6CB JUMP JUMPDEST PUSH1 0x0 DUP11 EQ DUP1 ISZERO PUSH2 0x4F5 JUMPI POP PUSH1 0x0 DUP10 EQ JUMPDEST ISZERO PUSH2 0x508 JUMPI DUP13 DUP13 DUP13 SWAP7 POP SWAP7 POP SWAP7 POP PUSH2 0x6CB JUMP JUMPDEST DUP10 DUP14 EQ DUP1 ISZERO PUSH2 0x516 JUMPI POP DUP9 DUP13 EQ JUMPDEST ISZERO PUSH2 0x576 JUMPI PUSH2 0x527 DUP14 DUP13 DUP16 DUP15 PUSH2 0x897 JUMP JUMPDEST DUP1 SWAP5 POP DUP2 SWAP6 POP POP POP PUSH2 0x53D DUP5 DUP5 PUSH1 0x3 PUSH1 0x1 PUSH2 0x897 JUMP JUMPDEST DUP1 SWAP5 POP DUP2 SWAP6 POP POP POP PUSH2 0x553 DUP5 DUP5 PUSH1 0x0 PUSH1 0x1 PUSH2 0x905 JUMP JUMPDEST DUP1 SWAP5 POP DUP2 SWAP6 POP POP POP PUSH2 0x569 DUP13 DUP13 PUSH1 0x2 PUSH1 0x1 PUSH2 0x897 JUMP JUMPDEST DUP1 SWAP3 POP DUP2 SWAP4 POP POP POP PUSH2 0x59F JUMP JUMPDEST PUSH2 0x582 DUP10 DUP10 DUP15 DUP15 PUSH2 0x9CB JUMP JUMPDEST DUP1 SWAP5 POP DUP2 SWAP6 POP POP POP PUSH2 0x596 DUP11 DUP10 DUP16 DUP15 PUSH2 0x9CB JUMP JUMPDEST DUP1 SWAP3 POP DUP2 SWAP4 POP POP POP JUMPDEST PUSH2 0x5AB DUP5 DUP5 DUP5 DUP5 PUSH2 0xAB3 JUMP JUMPDEST DUP1 SWAP5 POP DUP2 SWAP6 POP POP POP PUSH2 0x5BF DUP5 DUP5 DUP7 DUP7 PUSH2 0x897 JUMP JUMPDEST DUP1 SWAP4 POP DUP2 SWAP9 POP POP POP PUSH2 0x5D3 DUP8 DUP4 DUP16 DUP15 PUSH2 0x9CB JUMP JUMPDEST DUP1 SWAP4 POP DUP2 SWAP9 POP POP POP PUSH2 0x5E7 DUP8 DUP4 DUP13 DUP12 PUSH2 0x9CB JUMP JUMPDEST DUP1 SWAP4 POP DUP2 SWAP9 POP POP POP PUSH2 0x5FB DUP14 DUP13 DUP10 DUP6 PUSH2 0x9CB JUMP JUMPDEST DUP1 SWAP3 POP DUP2 SWAP8 POP POP POP PUSH2 0x60F DUP7 DUP3 DUP7 DUP7 PUSH2 0x897 JUMP JUMPDEST DUP1 SWAP3 POP DUP2 SWAP8 POP POP POP PUSH2 0x623 DUP7 DUP3 DUP15 DUP15 PUSH2 0x9CB JUMP JUMPDEST DUP1 SWAP3 POP DUP2 SWAP8 POP POP POP DUP1 DUP3 EQ ISZERO ISZERO PUSH2 0x6C6 JUMPI PUSH32 0xFFFFFFFFFFFFFFFFFFFFFFFFFFFFFFFFFFFFFFFFFFFFFFFFFFFFFFFEFFFFFC2F DUP1 ISZERO ISZERO PUSH2 0x65E JUMPI INVALID JUMPDEST DUP2 DUP9 MULMOD SWAP7 POP PUSH32 0xFFFFFFFFFFFFFFFFFFFFFFFFFFFFFFFFFFFFFFFFFFFFFFFFFFFFFFFEFFFFFC2F DUP1 ISZERO ISZERO PUSH2 0x68D JUMPI INVALID JUMPDEST DUP3 DUP8 MULMOD SWAP6 POP PUSH32 0xFFFFFFFFFFFFFFFFFFFFFFFFFFFFFFFFFFFFFFFFFFFFFFFFFFFFFFFEFFFFFC2F DUP1 ISZERO ISZERO PUSH2 0x6BC JUMPI INVALID JUMPDEST DUP2 DUP4 MULMOD SWAP5 POP PUSH2 0x6CA JUMP JUMPDEST DUP2 SWAP5 POP JUMPDEST JUMPDEST POP POP POP POP SWAP7 POP SWAP7 POP SWAP7 SWAP4 POP POP POP POP JUMP JUMPDEST PUSH1 0x0 DUP1 PUSH1 0x0 DUP1 PUSH1 0x0 DUP1 PUSH1 0x0 SWAP5 POP PUSH1 0x1 SWAP4 POP PUSH32 0xFFFFFFFFFFFFFFFFFFFFFFFFFFFFFFFFFFFFFFFFFFFFFFFFFFFFFFFEFFFFFC2F SWAP3 POP DUP7 SWAP2 POP JUMPDEST PUSH1 0x0 DUP3 EQ ISZERO ISZERO PUSH2 0x7C2 JUMPI DUP2 DUP4 DUP2 ISZERO ISZERO PUSH2 0x728 JUMPI INVALID JUMPDEST DIV SWAP1 POP DUP4 PUSH32 0xFFFFFFFFFFFFFFFFFFFFFFFFFFFFFFFFFFFFFFFFFFFFFFFFFFFFFFFEFFFFFC2F DUP1 ISZERO ISZERO PUSH2 0x756 JUMPI INVALID JUMPDEST PUSH32 0xFFFFFFFFFFFFFFFFFFFFFFFFFFFFFFFFFFFFFFFFFFFFFFFFFFFFFFFEFFFFFC2F DUP1 ISZERO ISZERO PUSH2 0x780 JUMPI INVALID JUMPDEST DUP7 DUP5 MULMOD PUSH32 0xFFFFFFFFFFFFFFFFFFFFFFFFFFFFFFFFFFFFFFFFFFFFFFFFFFFFFFFEFFFFFC2F SUB DUP8 ADDMOD DUP1 SWAP6 POP DUP2 SWAP7 POP POP POP DUP2 DUP3 DUP3 MUL DUP5 SUB DUP1 SWAP4 POP DUP2 SWAP5 POP POP POP PUSH2 0x713 JUMP JUMPDEST DUP5 SWAP6 POP POP POP POP POP POP SWAP2 SWAP1 POP JUMP JUMPDEST PUSH1 0x0 DUP1 PUSH1 0x0 DUP1 PUSH1 0x0 DUP1 PUSH1 0x0 DUP1 PUSH1 0x0 DUP1 DUP14 SWAP7 POP DUP13 SWAP6 POP DUP12 SWAP5 POP DUP11 SWAP4 POP PUSH1 0x0 SWAP3 POP PUSH1 0x0 SWAP2 POP PUSH1 0x1 SWAP1 POP PUSH1 0x0 DUP15 EQ ISZERO PUSH2 0x818 JUMPI PUSH1 0x0 DUP1 PUSH1 0x1 DUP3 SWAP3 POP DUP2 SWAP2 POP DUP1 SWAP1 POP SWAP10 POP SWAP10 POP SWAP10 POP PUSH2 0x886 JUMP JUMPDEST JUMPDEST PUSH1 0x0 DUP8 EQ ISZERO ISZERO PUSH2 0x876 JUMPI PUSH1 0x0 PUSH1 0x1 DUP9 AND EQ ISZERO ISZERO PUSH2 0x84B JUMPI PUSH2 0x83E DUP4 DUP4 DUP4 DUP10 DUP10 DUP10 PUSH2 0x4B8 JUMP JUMPDEST DUP1 SWAP4 POP DUP2 SWAP5 POP DUP3 SWAP6 POP POP POP POP JUMPDEST PUSH1 0x2 DUP8 DUP2 ISZERO ISZERO PUSH2 0x857 JUMPI INVALID JUMPDEST DIV SWAP7 POP PUSH2 0x865 DUP7 DUP7 DUP7 PUSH2 0xB21 JUMP JUMPDEST DUP1 SWAP7 POP DUP2 SWAP8 POP DUP3 SWAP9 POP POP POP POP PUSH2 0x819 JUMP JUMPDEST DUP3 DUP3 DUP3 DUP1 SWAP11 POP DUP2 SWAP12 POP DUP3 SWAP13 POP POP POP POP JUMPDEST POP POP POP POP POP POP POP SWAP5 POP SWAP5 POP SWAP5 SWAP2 POP POP JUMP JUMPDEST PUSH1 0x0 DUP1 PUSH32 0xFFFFFFFFFFFFFFFFFFFFFFFFFFFFFFFFFFFFFFFFFFFFFFFFFFFFFFFEFFFFFC2F DUP1 ISZERO ISZERO PUSH2 0x8C4 JUMPI INVALID JUMPDEST DUP5 DUP8 MULMOD PUSH32 0xFFFFFFFFFFFFFFFFFFFFFFFFFFFFFFFFFFFFFFFFFFFFFFFFFFFFFFFEFFFFFC2F DUP1 ISZERO ISZERO PUSH2 0x8F1 JUMPI INVALID JUMPDEST DUP5 DUP8 MULMOD DUP1 SWAP3 POP DUP2 SWAP4 POP POP POP SWAP5 POP SWAP5 SWAP3 POP POP POP JUMP JUMPDEST PUSH1 0x0 DUP1 PUSH32 0xFFFFFFFFFFFFFFFFFFFFFFFFFFFFFFFFFFFFFFFFFFFFFFFFFFFFFFFEFFFFFC2F DUP1 ISZERO ISZERO PUSH2 0x932 JUMPI INVALID JUMPDEST PUSH32 0xFFFFFFFFFFFFFFFFFFFFFFFFFFFFFFFFFFFFFFFFFFFFFFFFFFFFFFFEFFFFFC2F DUP1 ISZERO ISZERO PUSH2 0x95C JUMPI INVALID JUMPDEST DUP7 DUP7 MULMOD PUSH32 0xFFFFFFFFFFFFFFFFFFFFFFFFFFFFFFFFFFFFFFFFFFFFFFFFFFFFFFFEFFFFFC2F DUP1 ISZERO ISZERO PUSH2 0x989 JUMPI INVALID JUMPDEST DUP9 DUP7 MULMOD ADDMOD PUSH32 0xFFFFFFFFFFFFFFFFFFFFFFFFFFFFFFFFFFFFFFFFFFFFFFFFFFFFFFFEFFFFFC2F DUP1 ISZERO ISZERO PUSH2 0x9B7 JUMPI INVALID JUMPDEST DUP5 DUP8 MULMOD DUP1 SWAP3 POP DUP2 SWAP4 POP POP POP SWAP5 POP SWAP5 SWAP3 POP POP POP JUMP JUMPDEST PUSH1 0x0 DUP1 PUSH32 0xFFFFFFFFFFFFFFFFFFFFFFFFFFFFFFFFFFFFFFFFFFFFFFFFFFFFFFFEFFFFFC2F DUP1 ISZERO ISZERO PUSH2 0x9F8 JUMPI INVALID JUMPDEST PUSH32 0xFFFFFFFFFFFFFFFFFFFFFFFFFFFFFFFFFFFFFFFFFFFFFFFFFFFFFFFEFFFFFC2F DUP1 ISZERO ISZERO PUSH2 0xA22 JUMPI INVALID JUMPDEST DUP7 DUP7 PUSH32 0xFFFFFFFFFFFFFFFFFFFFFFFFFFFFFFFFFFFFFFFFFFFFFFFFFFFFFFFEFFFFFC2F SUB MULMOD PUSH32 0xFFFFFFFFFFFFFFFFFFFFFFFFFFFFFFFFFFFFFFFFFFFFFFFFFFFFFFFEFFFFFC2F DUP1 ISZERO ISZERO PUSH2 0xA71 JUMPI INVALID JUMPDEST DUP9 DUP7 MULMOD ADDMOD PUSH32 0xFFFFFFFFFFFFFFFFFFFFFFFFFFFFFFFFFFFFFFFFFFFFFFFFFFFFFFFEFFFFFC2F DUP1 ISZERO ISZERO PUSH2 0xA9F JUMPI INVALID JUMPDEST DUP5 DUP8 MULMOD DUP1 SWAP3 POP DUP2 SWAP4 POP POP POP SWAP5 POP SWAP5 SWAP3 POP POP POP JUMP JUMPDEST PUSH1 0x0 DUP1 PUSH32 0xFFFFFFFFFFFFFFFFFFFFFFFFFFFFFFFFFFFFFFFFFFFFFFFFFFFFFFFEFFFFFC2F DUP1 ISZERO ISZERO PUSH2 0xAE0 JUMPI INVALID JUMPDEST DUP4 DUP8 MULMOD PUSH32 0xFFFFFFFFFFFFFFFFFFFFFFFFFFFFFFFFFFFFFFFFFFFFFFFFFFFFFFFEFFFFFC2F DUP1 ISZERO ISZERO PUSH2 0xB0D JUMPI INVALID JUMPDEST DUP6 DUP8 MULMOD DUP1 SWAP3 POP DUP2 SWAP4 POP POP POP SWAP5 POP SWAP5 SWAP3 POP POP POP JUMP JUMPDEST PUSH1 0x0 DUP1 PUSH1 0x0 PUSH2 0xB34 DUP7 DUP7 DUP7 DUP10 DUP10 DUP10 PUSH2 0x4B8 JUMP JUMPDEST DUP1 SWAP4 POP DUP2 SWAP5 POP DUP3 SWAP6 POP POP POP POP SWAP4 POP SWAP4 POP SWAP4 SWAP1 POP JUMP STOP LOG1 PUSH6 0x627A7A723058 KECCAK256 SDIV 0xc7 SWAP4 KECCAK256 0xae SWAP5 0xb1 SWAP12 ISZERO 0xac DUP11 0x49 0x4b DUP9 STOP PUSH23 0x39CE010F5C3303191AE01EF4ADFF674A00290000000000 "},"methodIdentifiers":{"Add(uint256,uint256,uint256,uint256)":"39cd1f40","HashToEcc(uint256,uint256)":"7f77a40c","ScalarBaseMult(uint256)":"464cb749","ScalarMult(uint256,uint256,uint256)":"fb88954d"}}}}}