{
  "_format": "hh-sol-artifact-1",
  "contractName": "MimbleWimbleCT",
  "sourceName": "contracts/MimbleWimbleCT.sol",
  "abi": [
    {
      "inputs": [
        {
          "internalType": "bytes32",
          "name": "hash",
          "type": "bytes32"
        }
      ],
      "name": "CommitmentAlreadyExists",
      "type": "error"
    },
    {
      "inputs": [
        {
          "internalType": "bytes32",
          "name": "hash",
          "type": "bytes32"
        }
      ],
      "name": "CommitmentAlreadySpent",
      "type": "error"
    },
    {
      "inputs": [
        {
          "internalType": "bytes32",
          "name": "hash",
          "type": "bytes32"
        }
      ],
      "name": "CommitmentDoesNotExist",
      "type": "error"
    },
    {
      "inputs": [],
      "name": "EmptyInputs",
      "type": "error"
    },
    {
      "inputs": [],
      "name": "EmptyOutputs",
      "type": "error"
    },
    {
      "inputs": [],
      "name": "InputOutputImbalance",
      "type": "error"
    },
    {
      "inputs": [
        {
          "internalType": "bytes32",
          "name": "hash",
          "type": "bytes32"
        }
      ],
      "name": "InvalidRangeProof",
      "type": "error"
    },
    {
      "inputs": [],
      "name": "KernelSignatureInvalid",
      "type": "error"
    },
    {
      "inputs": [
        {
          "internalType": "bytes32",
          "name": "hash",
          "type": "bytes32"
        },
        {
          "internalType": "address",
          "name": "caller",
          "type": "address"
        }
      ],
      "name": "NotCommitmentOwner",
      "type": "error"
    },
    {
      "inputs": [
        {
          "internalType": "bytes32",
          "name": "hash",
          "type": "bytes32"
        }
      ],
      "name": "RangeProofMissing",
      "type": "error"
    },
    {
      "inputs": [
        {
          "internalType": "bytes32",
          "name": "txId",
          "type": "bytes32"
        }
      ],
      "name": "TransactionAlreadyFinalized",
      "type": "error"
    },
    {
      "inputs": [
        {
          "internalType": "bytes32",
          "name": "txId",
          "type": "bytes32"
        }
      ],
      "name": "TransactionDoesNotExist",
      "type": "error"
    },
    {
      "anonymous": false,
      "inputs": [
        {
          "indexed": true,
          "internalType": "bytes32",
          "name": "commitmentHash",
          "type": "bytes32"
        },
        {
          "indexed": true,
          "internalType": "address",
          "name": "recipient",
          "type": "address"
        }
      ],
      "name": "CoinbaseCommitment",
      "type": "event"
    },
    {
      "anonymous": false,
      "inputs": [
        {
          "indexed": true,
          "internalType": "bytes32",
          "name": "commitmentHash",
          "type": "bytes32"
        },
        {
          "indexed": true,
          "internalType": "address",
          "name": "owner",
          "type": "address"
        }
      ],
      "name": "CommitmentCreated",
      "type": "event"
    },
    {
      "anonymous": false,
      "inputs": [
        {
          "indexed": true,
          "internalType": "bytes32",
          "name": "commitmentHash",
          "type": "bytes32"
        },
        {
          "indexed": true,
          "internalType": "address",
          "name": "spender",
          "type": "address"
        }
      ],
      "name": "CommitmentSpent",
      "type": "event"
    },
    {
      "anonymous": false,
      "inputs": [
        {
          "indexed": true,
          "internalType": "bytes32",
          "name": "commitmentHash",
          "type": "bytes32"
        },
        {
          "indexed": false,
          "internalType": "bool",
          "name": "valid",
          "type": "bool"
        }
      ],
      "name": "RangeProofSubmitted",
      "type": "event"
    },
    {
      "anonymous": false,
      "inputs": [
        {
          "indexed": true,
          "internalType": "bytes32",
          "name": "txId",
          "type": "bytes32"
        }
      ],
      "name": "TransactionCreated",
      "type": "event"
    },
    {
      "anonymous": false,
      "inputs": [
        {
          "indexed": true,
          "internalType": "bytes32",
          "name": "txId",
          "type": "bytes32"
        }
      ],
      "name": "TransactionFinalized",
      "type": "event"
    },
    {
      "inputs": [
        {
          "internalType": "bytes32",
          "name": "",
          "type": "bytes32"
        }
      ],
      "name": "commitments",
      "outputs": [
        {
          "internalType": "bytes32",
          "name": "value",
          "type": "bytes32"
        },
        {
          "internalType": "address",
          "name": "owner",
          "type": "address"
        },
        {
          "internalType": "bool",
          "name": "spent",
          "type": "bool"
        }
      ],
      "stateMutability": "view",
      "type": "function"
    },
    {
      "inputs": [
        {
          "internalType": "bytes32",
          "name": "blindingFactor",
          "type": "bytes32"
        },
        {
          "internalType": "uint256",
          "name": "amount",
          "type": "uint256"
        },
        {
          "internalType": "address",
          "name": "owner",
          "type": "address"
        }
      ],
      "name": "computeCommitmentHash",
      "outputs": [
        {
          "internalType": "bytes32",
          "name": "",
          "type": "bytes32"
        }
      ],
      "stateMutability": "pure",
      "type": "function"
    },
    {
      "inputs": [
        {
          "internalType": "bytes32",
          "name": "blindingFactor",
          "type": "bytes32"
        },
        {
          "internalType": "uint256",
          "name": "amount",
          "type": "uint256"
        }
      ],
      "name": "createCommitment",
      "outputs": [
        {
          "internalType": "bytes32",
          "name": "commitmentHash",
          "type": "bytes32"
        }
      ],
      "stateMutability": "nonpayable",
      "type": "function"
    },
    {
      "inputs": [
        {
          "internalType": "bytes32[]",
          "name": "inputCommitments",
          "type": "bytes32[]"
        },
        {
          "internalType": "bytes32[]",
          "name": "outputCommitments",
          "type": "bytes32[]"
        },
        {
          "internalType": "bytes32",
          "name": "kernelCommitment",
          "type": "bytes32"
        },
        {
          "internalType": "bytes32",
          "name": "kernelSignature",
          "type": "bytes32"
        }
      ],
      "name": "createTransaction",
      "outputs": [
        {
          "internalType": "bytes32",
          "name": "txId",
          "type": "bytes32"
        }
      ],
      "stateMutability": "nonpayable",
      "type": "function"
    },
    {
      "inputs": [
        {
          "internalType": "bytes32",
          "name": "txId",
          "type": "bytes32"
        }
      ],
      "name": "finalizeTransaction",
      "outputs": [],
      "stateMutability": "nonpayable",
      "type": "function"
    },
    {
      "inputs": [
        {
          "internalType": "bytes32",
          "name": "txId",
          "type": "bytes32"
        }
      ],
      "name": "getTransaction",
      "outputs": [
        {
          "internalType": "bytes32[]",
          "name": "inputCommitments",
          "type": "bytes32[]"
        },
        {
          "internalType": "bytes32[]",
          "name": "outputCommitments",
          "type": "bytes32[]"
        },
        {
          "internalType": "bytes32",
          "name": "kernelCommitment",
          "type": "bytes32"
        },
        {
          "internalType": "bytes32",
          "name": "kernelSignature",
          "type": "bytes32"
        },
        {
          "internalType": "bool",
          "name": "finalized",
          "type": "bool"
        }
      ],
      "stateMutability": "view",
      "type": "function"
    },
    {
      "inputs": [],
      "name": "getUtxoCount",
      "outputs": [
        {
          "internalType": "uint256",
          "name": "",
          "type": "uint256"
        }
      ],
      "stateMutability": "view",
      "type": "function"
    },
    {
      "inputs": [],
      "name": "getUtxoSet",
      "outputs": [
        {
          "internalType": "bytes32[]",
          "name": "",
          "type": "bytes32[]"
        }
      ],
      "stateMutability": "view",
      "type": "function"
    },
    {
      "inputs": [
        {
          "internalType": "bytes32",
          "name": "commitmentHash",
          "type": "bytes32"
        }
      ],
      "name": "isUnspent",
      "outputs": [
        {
          "internalType": "bool",
          "name": "",
          "type": "bool"
        }
      ],
      "stateMutability": "view",
      "type": "function"
    },
    {
      "inputs": [
        {
          "internalType": "bytes32",
          "name": "blindingFactor",
          "type": "bytes32"
        },
        {
          "internalType": "uint256",
          "name": "amount",
          "type": "uint256"
        },
        {
          "internalType": "address",
          "name": "recipient",
          "type": "address"
        }
      ],
      "name": "mintCoinbase",
      "outputs": [
        {
          "internalType": "bytes32",
          "name": "commitmentHash",
          "type": "bytes32"
        }
      ],
      "stateMutability": "nonpayable",
      "type": "function"
    },
    {
      "inputs": [
        {
          "internalType": "bytes32",
          "name": "",
          "type": "bytes32"
        }
      ],
      "name": "rangeProofs",
      "outputs": [
        {
          "internalType": "bytes32",
          "name": "commitmentHash",
          "type": "bytes32"
        },
        {
          "internalType": "uint256",
          "name": "minValue",
          "type": "uint256"
        },
        {
          "internalType": "uint256",
          "name": "maxValue",
          "type": "uint256"
        },
        {
          "internalType": "bytes32",
          "name": "proofHash",
          "type": "bytes32"
        },
        {
          "internalType": "bool",
          "name": "valid",
          "type": "bool"
        }
      ],
      "stateMutability": "view",
      "type": "function"
    },
    {
      "inputs": [
        {
          "internalType": "bytes32",
          "name": "commitmentHash",
          "type": "bytes32"
        },
        {
          "internalType": "bytes32",
          "name": "blindingFactor",
          "type": "bytes32"
        },
        {
          "internalType": "uint256",
          "name": "amount",
          "type": "uint256"
        },
        {
          "internalType": "bytes32",
          "name": "nonce",
          "type": "bytes32"
        }
      ],
      "name": "submitRangeProof",
      "outputs": [
        {
          "internalType": "bool",
          "name": "",
          "type": "bool"
        }
      ],
      "stateMutability": "nonpayable",
      "type": "function"
    },
    {
      "inputs": [],
      "name": "totalCommitments",
      "outputs": [
        {
          "internalType": "uint256",
          "name": "",
          "type": "uint256"
        }
      ],
      "stateMutability": "view",
      "type": "function"
    },
    {
      "inputs": [],
      "name": "totalTransactions",
      "outputs": [
        {
          "internalType": "uint256",
          "name": "",
          "type": "uint256"
        }
      ],
      "stateMutability": "view",
      "type": "function"
    },
    {
      "inputs": [
        {
          "internalType": "uint256",
          "name": "",
          "type": "uint256"
        }
      ],
      "name": "transactionIds",
      "outputs": [
        {
          "internalType": "bytes32",
          "name": "",
          "type": "bytes32"
        }
      ],
      "stateMutability": "view",
      "type": "function"
    },
    {
      "inputs": [
        {
          "internalType": "bytes32",
          "name": "",
          "type": "bytes32"
        }
      ],
      "name": "transactions",
      "outputs": [
        {
          "internalType": "bytes32",
          "name": "kernelCommitment",
          "type": "bytes32"
        },
        {
          "internalType": "bytes32",
          "name": "kernelSignature",
          "type": "bytes32"
        },
        {
          "internalType": "bool",
          "name": "finalized",
          "type": "bool"
        }
      ],
      "stateMutability": "view",
      "type": "function"
    },
    {
      "inputs": [
        {
          "internalType": "uint256",
          "name": "",
          "type": "uint256"
        }
      ],
      "name": "utxoSet",
      "outputs": [
        {
          "internalType": "bytes32",
          "name": "",
          "type": "bytes32"
        }
      ],
      "stateMutability": "view",
      "type": "function"
    }
  ],
  "bytecode": "0x608060405234801561001057600080fd5b5061142d806100206000396000f3fe608060405234801561001057600080fd5b506004361061010b5760003560e01c8063839df945116100a2578063b2efda8311610071578063b2efda83146102a4578063b9a60038146102b9578063d5bbae71146102c2578063e36f8dc5146102d5578063f495ac4c146102e857600080fd5b8063839df945146102085780638f9f114b146102695780639c36e6f71461027c578063a8502c331461029157600080fd5b80634b46ca0c116100de5780634b46ca0c146101755780635f20994d14610188578063642f2eaf146101ab57806378bb86d3146101ff57600080fd5b806307e149f4146101105780633136143c14610136578063400ed044146101495780634aae13ca14610151575b600080fd5b61012361011e36600461110e565b610351565b6040519081526020015b60405180910390f35b61012361014436600461110e565b61047f565b600354610123565b61016461015f366004611153565b610494565b60405161012d9594939291906111a8565b6101236101833660046111ed565b61057f565b61019b610196366004611153565b6106a2565b604051901515815260200161012d565b6101e26101b9366004611153565b600260208190526000918252604090912090810154600382015460049092015490919060ff1683565b60408051938452602084019290925215159082015260600161012d565b61012360055481565b610244610216366004611153565b600060208190529081526040902080546001909101546001600160a01b03811690600160a01b900460ff1683565b604080519384526001600160a01b03909216602084015215159082015260600161012d565b610123610277366004611153565b6106ea565b61028461070b565b60405161012d919061120f565b61019b61029f366004611229565b610763565b6102b76102b2366004611153565b610900565b005b61012360065481565b6101236102d03660046112a7565b610a47565b6101236102e3366004611153565b610f25565b6103276102f6366004611153565b6001602081905260009182526040909120805491810154600282015460038301546004909301549192909160ff1685565b6040805195865260208601949094529284019190915260608301521515608082015260a00161012d565b600061035e848484610f35565b6000818152602081905260409020600101549091506001600160a01b0316156103a25760405163c5f89f0560e01b8152600481018290526024015b60405180910390fd5b604080516060810182528281526001600160a01b0380851660208084019182526000848601818152878252918190529485209351845590516001938401805492511515600160a01b026001600160a81b0319909316919093161717905560038054918201815582527fc2575a0e9e593c00f959f8c92f12db2869c3395a3b0502d05e2516446f71f85b01829055600580549161043d8361133b565b90915550506040516001600160a01b0383169082907f4dcab03f83a733c35260a0103d46b7e6ef1186528d20cbb586b3cbc2f5b30f9f90600090a39392505050565b600061048c848484610f35565b949350505050565b6000818152600260208181526040808420928301546003840154600485015485548451818702810187019095528085526060978897909687968796929586956001870195919360ff9091169291879183018282801561051257602002820191906000526020600020905b8154815260200190600101908083116104fe575b505050505094508380548060200260200160405190810160405280929190818152602001828054801561056457602002820191906000526020600020905b815481526020019060010190808311610550575b50505050509350955095509550955095505091939590929450565b600061058c838333610f35565b6000818152602081905260409020600101549091506001600160a01b0316156105cb5760405163c5f89f0560e01b815260048101829052602401610399565b604080516060810182528281523360208083019182526000838501818152868252918190529384209251835590516001928301805492511515600160a01b026001600160a81b03199093166001600160a01b03929092169190911791909117905560038054918201815582527fc2575a0e9e593c00f959f8c92f12db2869c3395a3b0502d05e2516446f71f85b01829055600580549161066a8361133b565b9091555050604051339082907f0802a3ea8270dd07b2cfabffb35a0d45b28e881127824ad30255fb8acae99b7790600090a392915050565b600081815260208190526040812060010154600160a01b900460ff161580156106e457506000828152602081905260409020600101546001600160a01b031615155b92915050565b600381815481106106fa57600080fd5b600091825260209091200154905081565b6060600380548060200260200160405190810160405280929190818152602001828054801561075957602002820191906000526020600020905b815481526020019060010190808311610745575b5050505050905090565b6000848152602081905260408120600101546001600160a01b031661079e576040516307cd98ab60e51b815260048101869052602401610399565b6000858152602081905260408120600101546107c690869086906001600160a01b0316610f35565b9050600086821480156107e0575067ffffffffffffffff85105b60408051602081018a9052600091810182905267ffffffffffffffff6060820152608081018790529192509060a0016040516020818303038152906040528051906020012090506040518060a001604052808981526020016000815260200167ffffffffffffffff80168152602001828152602001831515815250600160008a81526020019081526020016000206000820151816000015560208201518160010155604082015181600201556060820151816003015560808201518160040160006101000a81548160ff021916908315150217905550905050877f495a6d84a0a777795c64a73198de1ea306ca61a4e93eb57fcb2ab7ce8dbdf9de836040516108ed911515815260200190565b60405180910390a2509695505050505050565b60008181526002602081905260409091209081015461093557604051633e72a59f60e21b815260048101839052602401610399565b600481015460ff161561095e57604051630c4093d360e21b815260048101839052602401610399565b60005b81548110156109f057600082600001828154811061098157610981611354565b6000918252602080832090910154808352908290526040909120600101805460ff60a01b1916600160a01b17905590506109ba81610f7d565b604051339082907fc2a218f1d69c685f33bbbde130a7e6917fdffa6e8b89b3dc44c093d1bffb6e3e90600090a350600101610961565b5060005b6001820154811015610a08576001016109f4565b5060048101805460ff1916600117905560405182907f24196ec40f90671b7144e716978686b4f3c7d6b00b23da3971ef2b52af27d87f90600090a25050565b6000858103610a6957604051631b72db3760e31b815260040160405180910390fd5b6000849003610a8b57604051633835622960e01b815260040160405180910390fd5b60005b86811015610bb1576000888883818110610aaa57610aaa611354565b60209081029290920135600081815292839052604090922060010154919250506001600160a01b0316610af3576040516307cd98ab60e51b815260048101829052602401610399565b600081815260208190526040902060010154600160a01b900460ff1615610b305760405163707d44e360e11b815260048101829052602401610399565b6000818152602081905260409020600101546001600160a01b03163314610b735760405163216ccfd360e11b815260048101829052336024820152604401610399565b60008181526001602052604090206004015460ff16610ba85760405163d838a11560e01b815260048101829052602401610399565b50600101610a8e565b5060005b84811015610c58576000868683818110610bd157610bd1611354565b60209081029290920135600081815292839052604090922060010154919250506001600160a01b0316610c1a576040516307cd98ab60e51b815260048101829052602401610399565b60008181526001602052604090206004015460ff16610c4f5760405163d838a11560e01b815260048101829052602401610399565b50600101610bb5565b50610cc887878080602002602001604051908101604052809392919081815260200183836020028082843760009201919091525050604080516020808b0282810182019093528a82529093508a92508991829185019084908082843760009201919091525088925061102f915050565b610ce557604051638f54ce6160e01b815260040160405180910390fd5b600087878787604051602001610cfe949392919061139c565b60408051601f1981840301815282825280516020918201209083018790529082018190529150600090606001604051602081830303815290604052805190602001209050808414610d6257604051633b09ff1f60e21b815260040160405180910390fd5b804233604051602001610d9a93929190928352602083019190915260601b6bffffffffffffffffffffffff1916604082015260540190565b6040516020818303038152906040528051906020012092506040518060a001604052808a8a808060200260200160405190810160405280939291908181526020018383602002808284376000920191909152505050908252506040805160208a810282810182019093528a82529283019290918b918b918291850190849080828437600092018290525093855250505060208083018990526040808401899052606090930182905286825260028152919020825180519192610e61928492909101906110ae565b506020828101518051610e7a92600185019201906110ae565b5060408201516002820155606082015160038201556080909101516004918201805460ff1916911515919091179055805460018101825560009182527f8a35acfbc15ff81a39ae7d344fd709f28e8600b4aa8c65c6b64bfe7fe36bd19b018490556006805491610ee98361133b565b909155505060405183907fee4f8d3f28d7484641670775568c295b034d27b0e9d9978fbee2ab15c770709490600090a250509695505050505050565b600481815481106106fa57600080fd5b60408051602080820195909552808201939093526bffffffffffffffffffffffff19606092831b16918301919091528051605481840301815260749092019052805191012090565b60035460005b8181101561102a578260038281548110610f9f57610f9f611354565b906000526020600020015403611022576003610fbc6001846113ce565b81548110610fcc57610fcc611354565b906000526020600020015460038281548110610fea57610fea611354565b6000918252602090912001556003805480611007576110076113e1565b60019003818190600052602060002001600090559055505050565b600101610f83565b505050565b60008080805b86518110156110695786818151811061105057611050611354565b6020026020010151831892508080600101915050611035565b5060005b85518110156110a15785818151811061108857611088611354565b602002602001015182189150808060010191505061106d565b5018821490509392505050565b8280548282559060005260206000209081019282156110e9579160200282015b828111156110e95782518255916020019190600101906110ce565b506110f59291506110f9565b5090565b5b808211156110f557600081556001016110fa565b60008060006060848603121561112357600080fd5b833592506020840135915060408401356001600160a01b038116811461114857600080fd5b809150509250925092565b60006020828403121561116557600080fd5b5035919050565b60008151808452602080850194506020840160005b8381101561119d57815187529582019590820190600101611181565b509495945050505050565b60a0815260006111bb60a083018861116c565b82810360208401526111cd818861116c565b604084019690965250506060810192909252151560809091015292915050565b6000806040838503121561120057600080fd5b50508035926020909101359150565b602081526000611222602083018461116c565b9392505050565b6000806000806080858703121561123f57600080fd5b5050823594602084013594506040840135936060013592509050565b60008083601f84011261126d57600080fd5b50813567ffffffffffffffff81111561128557600080fd5b6020830191508360208260051b85010111156112a057600080fd5b9250929050565b600080600080600080608087890312156112c057600080fd5b863567ffffffffffffffff808211156112d857600080fd5b6112e48a838b0161125b565b909850965060208901359150808211156112fd57600080fd5b5061130a89828a0161125b565b979a9699509760408101359660609091013595509350505050565b634e487b7160e01b600052601160045260246000fd5b60006001820161134d5761134d611325565b5060010190565b634e487b7160e01b600052603260045260246000fd5b81835260006001600160fb1b0383111561138357600080fd5b8260051b80836020870137939093016020019392505050565b6040815260006113b060408301868861136a565b82810360208401526113c381858761136a565b979650505050505050565b818103818111156106e4576106e4611325565b634e487b7160e01b600052603160045260246000fdfea26469706673582212203ac06d24e12f9bfae1b180978c4a0a4800f17bc8ef90335bfe9fe5316a532af764736f6c63430008180033",
  "linkReferences": {},
  "deployedLinkReferences": {}
}