{
  "_format": "hh-sol-artifact-1",
  "contractName": "PostQuantumToken",
  "sourceName": "contracts/PostQuantumToken.sol",
  "abi": [
    {
      "inputs": [
        {
          "internalType": "uint256",
          "name": "initialSupply",
          "type": "uint256"
        }
      ],
      "stateMutability": "nonpayable",
      "type": "constructor"
    },
    {
      "inputs": [
        {
          "internalType": "uint256",
          "name": "available",
          "type": "uint256"
        },
        {
          "internalType": "uint256",
          "name": "required",
          "type": "uint256"
        }
      ],
      "name": "InsufficientAllowance",
      "type": "error"
    },
    {
      "inputs": [
        {
          "internalType": "uint256",
          "name": "available",
          "type": "uint256"
        },
        {
          "internalType": "uint256",
          "name": "required",
          "type": "uint256"
        }
      ],
      "name": "InsufficientBalance",
      "type": "error"
    },
    {
      "inputs": [
        {
          "internalType": "address",
          "name": "account",
          "type": "address"
        }
      ],
      "name": "InvalidPublicKey",
      "type": "error"
    },
    {
      "inputs": [],
      "name": "InvalidSignature",
      "type": "error"
    },
    {
      "inputs": [],
      "name": "OnlyOwner",
      "type": "error"
    },
    {
      "inputs": [
        {
          "internalType": "address",
          "name": "account",
          "type": "address"
        }
      ],
      "name": "PQKeyNotRegistered",
      "type": "error"
    },
    {
      "inputs": [],
      "name": "SignatureAlreadyUsed",
      "type": "error"
    },
    {
      "inputs": [],
      "name": "ZeroAddress",
      "type": "error"
    },
    {
      "anonymous": false,
      "inputs": [
        {
          "indexed": true,
          "internalType": "address",
          "name": "owner",
          "type": "address"
        },
        {
          "indexed": true,
          "internalType": "address",
          "name": "spender",
          "type": "address"
        },
        {
          "indexed": false,
          "internalType": "uint256",
          "name": "value",
          "type": "uint256"
        }
      ],
      "name": "Approval",
      "type": "event"
    },
    {
      "anonymous": false,
      "inputs": [
        {
          "indexed": true,
          "internalType": "address",
          "name": "to",
          "type": "address"
        },
        {
          "indexed": false,
          "internalType": "uint256",
          "name": "amount",
          "type": "uint256"
        }
      ],
      "name": "Mint",
      "type": "event"
    },
    {
      "anonymous": false,
      "inputs": [
        {
          "indexed": true,
          "internalType": "address",
          "name": "account",
          "type": "address"
        },
        {
          "indexed": false,
          "internalType": "bytes32",
          "name": "commitment",
          "type": "bytes32"
        }
      ],
      "name": "PQKeyRegistered",
      "type": "event"
    },
    {
      "anonymous": false,
      "inputs": [
        {
          "indexed": true,
          "internalType": "address",
          "name": "account",
          "type": "address"
        },
        {
          "indexed": false,
          "internalType": "bytes32",
          "name": "newCommitment",
          "type": "bytes32"
        }
      ],
      "name": "PQKeyRotated",
      "type": "event"
    },
    {
      "anonymous": false,
      "inputs": [
        {
          "indexed": true,
          "internalType": "address",
          "name": "from",
          "type": "address"
        },
        {
          "indexed": true,
          "internalType": "address",
          "name": "to",
          "type": "address"
        },
        {
          "indexed": false,
          "internalType": "uint256",
          "name": "value",
          "type": "uint256"
        }
      ],
      "name": "Transfer",
      "type": "event"
    },
    {
      "inputs": [
        {
          "internalType": "address",
          "name": "",
          "type": "address"
        },
        {
          "internalType": "address",
          "name": "",
          "type": "address"
        }
      ],
      "name": "allowance",
      "outputs": [
        {
          "internalType": "uint256",
          "name": "",
          "type": "uint256"
        }
      ],
      "stateMutability": "view",
      "type": "function"
    },
    {
      "inputs": [
        {
          "internalType": "address",
          "name": "spender",
          "type": "address"
        },
        {
          "internalType": "uint256",
          "name": "amount",
          "type": "uint256"
        }
      ],
      "name": "approve",
      "outputs": [
        {
          "internalType": "bool",
          "name": "",
          "type": "bool"
        }
      ],
      "stateMutability": "nonpayable",
      "type": "function"
    },
    {
      "inputs": [
        {
          "internalType": "address",
          "name": "",
          "type": "address"
        }
      ],
      "name": "balanceOf",
      "outputs": [
        {
          "internalType": "uint256",
          "name": "",
          "type": "uint256"
        }
      ],
      "stateMutability": "view",
      "type": "function"
    },
    {
      "inputs": [],
      "name": "decimals",
      "outputs": [
        {
          "internalType": "uint8",
          "name": "",
          "type": "uint8"
        }
      ],
      "stateMutability": "view",
      "type": "function"
    },
    {
      "inputs": [
        {
          "internalType": "address",
          "name": "account",
          "type": "address"
        }
      ],
      "name": "getPQCommitment",
      "outputs": [
        {
          "internalType": "bytes32",
          "name": "",
          "type": "bytes32"
        }
      ],
      "stateMutability": "view",
      "type": "function"
    },
    {
      "inputs": [
        {
          "internalType": "address",
          "name": "account",
          "type": "address"
        }
      ],
      "name": "getPQNonce",
      "outputs": [
        {
          "internalType": "uint256",
          "name": "",
          "type": "uint256"
        }
      ],
      "stateMutability": "view",
      "type": "function"
    },
    {
      "inputs": [
        {
          "internalType": "address",
          "name": "account",
          "type": "address"
        }
      ],
      "name": "hasPQKey",
      "outputs": [
        {
          "internalType": "bool",
          "name": "",
          "type": "bool"
        }
      ],
      "stateMutability": "view",
      "type": "function"
    },
    {
      "inputs": [
        {
          "internalType": "address",
          "name": "to",
          "type": "address"
        },
        {
          "internalType": "uint256",
          "name": "amount",
          "type": "uint256"
        }
      ],
      "name": "mint",
      "outputs": [],
      "stateMutability": "nonpayable",
      "type": "function"
    },
    {
      "inputs": [],
      "name": "name",
      "outputs": [
        {
          "internalType": "string",
          "name": "",
          "type": "string"
        }
      ],
      "stateMutability": "view",
      "type": "function"
    },
    {
      "inputs": [],
      "name": "owner",
      "outputs": [
        {
          "internalType": "address",
          "name": "",
          "type": "address"
        }
      ],
      "stateMutability": "view",
      "type": "function"
    },
    {
      "inputs": [
        {
          "internalType": "address",
          "name": "",
          "type": "address"
        }
      ],
      "name": "pqKeyRegistered",
      "outputs": [
        {
          "internalType": "bool",
          "name": "",
          "type": "bool"
        }
      ],
      "stateMutability": "view",
      "type": "function"
    },
    {
      "inputs": [
        {
          "internalType": "address",
          "name": "",
          "type": "address"
        }
      ],
      "name": "pqNonce",
      "outputs": [
        {
          "internalType": "uint256",
          "name": "",
          "type": "uint256"
        }
      ],
      "stateMutability": "view",
      "type": "function"
    },
    {
      "inputs": [
        {
          "internalType": "address",
          "name": "",
          "type": "address"
        }
      ],
      "name": "pqPublicKeyCommitment",
      "outputs": [
        {
          "internalType": "bytes32",
          "name": "",
          "type": "bytes32"
        }
      ],
      "stateMutability": "view",
      "type": "function"
    },
    {
      "inputs": [
        {
          "internalType": "address",
          "name": "to",
          "type": "address"
        },
        {
          "internalType": "uint256",
          "name": "amount",
          "type": "uint256"
        },
        {
          "internalType": "bytes32[2][256]",
          "name": "publicKey",
          "type": "bytes32[2][256]"
        },
        {
          "internalType": "bytes32[256]",
          "name": "signature",
          "type": "bytes32[256]"
        },
        {
          "internalType": "bytes32[2][256]",
          "name": "newPublicKey",
          "type": "bytes32[2][256]"
        }
      ],
      "name": "pqTransfer",
      "outputs": [
        {
          "internalType": "bool",
          "name": "",
          "type": "bool"
        }
      ],
      "stateMutability": "nonpayable",
      "type": "function"
    },
    {
      "inputs": [
        {
          "internalType": "bytes32[2][256]",
          "name": "publicKey",
          "type": "bytes32[2][256]"
        }
      ],
      "name": "registerPQKey",
      "outputs": [],
      "stateMutability": "nonpayable",
      "type": "function"
    },
    {
      "inputs": [],
      "name": "symbol",
      "outputs": [
        {
          "internalType": "string",
          "name": "",
          "type": "string"
        }
      ],
      "stateMutability": "view",
      "type": "function"
    },
    {
      "inputs": [],
      "name": "totalSupply",
      "outputs": [
        {
          "internalType": "uint256",
          "name": "",
          "type": "uint256"
        }
      ],
      "stateMutability": "view",
      "type": "function"
    },
    {
      "inputs": [
        {
          "internalType": "address",
          "name": "to",
          "type": "address"
        },
        {
          "internalType": "uint256",
          "name": "amount",
          "type": "uint256"
        }
      ],
      "name": "transfer",
      "outputs": [
        {
          "internalType": "bool",
          "name": "",
          "type": "bool"
        }
      ],
      "stateMutability": "nonpayable",
      "type": "function"
    },
    {
      "inputs": [
        {
          "internalType": "address",
          "name": "from",
          "type": "address"
        },
        {
          "internalType": "address",
          "name": "to",
          "type": "address"
        },
        {
          "internalType": "uint256",
          "name": "amount",
          "type": "uint256"
        }
      ],
      "name": "transferFrom",
      "outputs": [
        {
          "internalType": "bool",
          "name": "",
          "type": "bool"
        }
      ],
      "stateMutability": "nonpayable",
      "type": "function"
    },
    {
      "inputs": [
        {
          "internalType": "address",
          "name": "",
          "type": "address"
        },
        {
          "internalType": "bytes32",
          "name": "",
          "type": "bytes32"
        }
      ],
      "name": "usedSignatureHashes",
      "outputs": [
        {
          "internalType": "bool",
          "name": "",
          "type": "bool"
        }
      ],
      "stateMutability": "view",
      "type": "function"
    }
  ],
  "bytecode": "0x60a06040523480156200001157600080fd5b506040516200106d3803806200106d8339810160408190526200003491620000af565b336080526000620000486012600a620001de565b620000549083620001f3565b6000818155338082526001602052604080832084905551929350917fddf252ad1be2c89b69c2b068fc378daa952ba7f163c4a11628f55a4df523b3ef906200009f9085815260200190565b60405180910390a350506200020d565b600060208284031215620000c257600080fd5b5051919050565b634e487b7160e01b600052601160045260246000fd5b600181815b8085111562000120578160001904821115620001045762000104620000c9565b808516156200011257918102915b93841c9390800290620000e4565b509250929050565b6000826200013957506001620001d8565b816200014857506000620001d8565b81600181146200016157600281146200016c576200018c565b6001915050620001d8565b60ff841115620001805762000180620000c9565b50506001821b620001d8565b5060208310610133831016604e8410600b8410161715620001b1575081810a620001d8565b620001bd8383620000df565b8060001904821115620001d457620001d4620000c9565b0290505b92915050565b6000620001ec838362000128565b9392505050565b8082028115828204841417620001d857620001d8620000c9565b608051610e3d620002306000396000818161025501526105880152610e3d6000f3fe608060405234801561001057600080fd5b506004361061012c5760003560e01c806390ba5195116100ad578063d231beac11610071578063d231beac1461033c578063d2dc3dd71461036a578063dd62ed3e1461038a578063f6e17206146103b5578063fb3b8a9d146103d557600080fd5b806390ba51951461028f5780639537d9a7146102bb57806395d89b41146102e4578063a9059cbb14610306578063b109af791461031957600080fd5b8063313ce567116100f4578063313ce567146101da57806340c10f19146101f4578063590ca5c61461020757806370a08231146102305780638da5cb5b1461025057600080fd5b806306fdde0314610131578063095ea7b31461017857806318160ddd1461019b5780631990fc61146101b257806323b872dd146101c7575b600080fd5b610162604051806040016040528060128152602001712837b9ba1028bab0b73a3ab6902a37b5b2b760711b81525081565b60405161016f9190610bb8565b60405180910390f35b61018b610186366004610c22565b6103e8565b604051901515815260200161016f565b6101a460005481565b60405190815260200161016f565b6101c56101c0366004610c5e565b610455565b005b61018b6101d5366004610c7b565b6104c9565b6101e2601281565b60405160ff909116815260200161016f565b6101c5610202366004610c22565b61057d565b6101a4610215366004610cb7565b6001600160a01b031660009081526004602052604090205490565b6101a461023e366004610cb7565b60016020526000908152604090205481565b6102777f000000000000000000000000000000000000000000000000000000000000000081565b6040516001600160a01b03909116815260200161016f565b61018b61029d366004610cb7565b6001600160a01b031660009081526005602052604090205460ff1690565b6101a46102c9366004610cb7565b6001600160a01b031660009081526003602052604090205490565b6101626040518060400160405280600381526020016214145560ea1b81525081565b61018b610314366004610c22565b6106b3565b61018b610327366004610cb7565b60056020526000908152604090205460ff1681565b61018b61034a366004610c22565b600660209081526000928352604080842090915290825290205460ff1681565b6101a4610378366004610cb7565b60036020526000908152604090205481565b6101a4610398366004610cd2565b600260209081526000928352604080842090915290825290205481565b6101a46103c3366004610cb7565b60046020526000908152604090205481565b61018b6103e3366004610d05565b6106f0565b3360008181526002602090815260408083206001600160a01b038716808552925280832085905551919290917f8c5be1e5ebec7d5bd14f71427d1e84f3dd0314c0f7b2291e5b200ac8c7c3b925906104439086815260200190565b60405180910390a35060015b92915050565b6000610460826109ae565b336000818152600360209081526040808320859055600590915290819020805460ff1916600117905551919250907f4fcbcea4b7e75083c36ff8d26fbca18bce9c175c595ecac61f46d546d0111a46906104bd9084815260200190565b60405180910390a25050565b6001600160a01b03831660009081526002602090815260408083203384529091528120548281101561051d5760405163054365bb60e31b815260048101829052602481018490526044015b60405180910390fd5b6001600160a01b0380861660009081526002602090815260408083203384529091529020848303905584166105655760405163d92e233d60e01b815260040160405180910390fd5b6105708585856109de565b60019150505b9392505050565b336001600160a01b037f000000000000000000000000000000000000000000000000000000000000000016146105c657604051635fc483c560e01b815260040160405180910390fd5b6001600160a01b0382166105ed5760405163d92e233d60e01b815260040160405180910390fd5b806000808282546105fe9190610d85565b90915550506001600160a01b0382166000908152600160205260408120805483929061062b908490610d85565b90915550506040518181526001600160a01b038316907f0f6798a560793a54c3bcfe86a93cde1e73087d944c0ea20544137d41213968859060200160405180910390a26040518181526001600160a01b038316906000907fddf252ad1be2c89b69c2b068fc378daa952ba7f163c4a11628f55a4df523b3ef9060200160405180910390a35050565b60006001600160a01b0383166106dc5760405163d92e233d60e01b815260040160405180910390fd5b6106e73384846109de565b50600192915050565b3360008181526005602052604081205490919060ff1661072e576040516319851c6d60e21b81526001600160a01b0382166004820152602401610514565b6001600160a01b03811660009081526001602052604090205486111561078c576001600160a01b0381166000908152600160205260409081902054905163cf47918160e01b8152600481019190915260248101879052604401610514565b6001600160a01b0381166000908152600360205260409020546107b0908690610aab565b6107db5760405160016207762f60e31b031981526001600160a01b0382166004820152602401610514565b6001600160a01b03811660009081526004602090815260408083205490516bffffffffffffffffffffffff19606086811b821694830194909452928b901b909216603483015260488201899052606882015246608882015260a8016040516020818303038152906040528051906020012090506000856040516020016108619190610d98565b60408051601f1981840301815291815281516020928301206001600160a01b03861660009081526006845282812082825290935291205490915060ff16156108bc5760405163900bb2c960e01b815260040160405180910390fd5b6108c7828789610ade565b6108e457604051638baa579f60e01b815260040160405180910390fd5b6001600160a01b03831660009081526006602090815260408083208484529091528120805460ff1916600117905561091b866109ae565b6001600160a01b0385166000818152600360205260409081902083905551919250907fd12591944b03a5e78dbc0769261215132dacd1b392713d231fdc86f5a497ee8a9061096c9084815260200190565b60405180910390a26001600160a01b03841660009081526004602052604090208054600101905561099e848b8b6109de565b5060019998505050505050505050565b6000816040516020016109c19190610daa565b604051602081830303815290604052805190602001209050919050565b6001600160a01b038316600090815260016020526040902054811115610a3c576001600160a01b0383166000908152600160205260409081902054905163cf47918160e01b8152600481019190915260248101829052604401610514565b6001600160a01b03808416600081815260016020526040808220805486900390559285168082529083902080548501905591517fddf252ad1be2c89b69c2b068fc378daa952ba7f163c4a11628f55a4df523b3ef90610a9e9085815260200190565b60405180910390a3505050565b60008183604051602001610abf9190610daa565b6040516020818303038152906040528051906020012014905092915050565b6000805b610100811015610bad57600381901c6000610b01600780851690610dde565b9050600081888460208110610b1857610b18610df1565b1a901c600116905085846101008110610b3357610b33610df1565b604002018160028110610b4857610b48610df1565b602002013587856101008110610b6057610b60610df1565b6020020135604051602001610b7791815260200190565b6040516020818303038152906040528051906020012014610b9f576000945050505050610576565b836001019350505050610ae2565b506001949350505050565b600060208083528351808285015260005b81811015610be557858101830151858201604001528201610bc9565b506000604082860101526040601f19601f8301168501019250505092915050565b80356001600160a01b0381168114610c1d57600080fd5b919050565b60008060408385031215610c3557600080fd5b610c3e83610c06565b946020939093013593505050565b80614000810183101561044f57600080fd5b60006140008284031215610c7157600080fd5b6105768383610c4c565b600080600060608486031215610c9057600080fd5b610c9984610c06565b9250610ca760208501610c06565b9150604084013590509250925092565b600060208284031215610cc957600080fd5b61057682610c06565b60008060408385031215610ce557600080fd5b610cee83610c06565b9150610cfc60208401610c06565b90509250929050565b600080600080600061a0408688031215610d1e57600080fd5b610d2786610c06565b945060208601359350610d3d8760408801610c4c565b9250616040860187811115610d5157600080fd5b61404087019250610d628882610c4c565b9150509295509295909350565b634e487b7160e01b600052601160045260246000fd5b8082018082111561044f5761044f610d6f565b61200081810190808484375092915050565b6140008101818360005b610100811015610dd557604080838537928301929190910190600101610db4565b50505092915050565b8181038181111561044f5761044f610d6f565b634e487b7160e01b600052603260045260246000fdfea2646970667358221220188088b19cb1150dd522700963513cc09e76d4c00709c83da9b9908ca853aeb164736f6c63430008140033",
  "linkReferences": {},
  "deployedLinkReferences": {}
}