{"contracts/MimbleWimbleCT.sol":{"MimbleWimbleCT":{"abi":[{"inputs":[{"internalType":"bytes32","name":"hash","type":"bytes32"}],"name":"CommitmentAlreadyExists","type":"error"},{"inputs":[{"internalType":"bytes32","name":"hash","type":"bytes32"}],"name":"CommitmentAlreadySpent","type":"error"},{"inputs":[{"internalType":"bytes32","name":"hash","type":"bytes32"}],"name":"CommitmentDoesNotExist","type":"error"},{"inputs":[],"name":"EmptyInputs","type":"error"},{"inputs":[],"name":"EmptyOutputs","type":"error"},{"inputs":[],"name":"InputOutputImbalance","type":"error"},{"inputs":[{"internalType":"bytes32","name":"hash","type":"bytes32"}],"name":"InvalidRangeProof","type":"error"},{"inputs":[],"name":"KernelSignatureInvalid","type":"error"},{"inputs":[{"internalType":"bytes32","name":"hash","type":"bytes32"},{"internalType":"address","name":"caller","type":"address"}],"name":"NotCommitmentOwner","type":"error"},{"inputs":[{"internalType":"bytes32","name":"hash","type":"bytes32"}],"name":"RangeProofMissing","type":"error"},{"inputs":[{"internalType":"bytes32","name":"txId","type":"bytes32"}],"name":"TransactionAlreadyFinalized","type":"error"},{"inputs":[{"internalType":"bytes32","name":"txId","type":"bytes32"}],"name":"TransactionDoesNotExist","type":"error"},{"anonymous":false,"inputs":[{"indexed":true,"internalType":"bytes32","name":"commitmentHash","type":"bytes32"},{"indexed":true,"internalType":"address","name":"recipient","type":"address"}],"name":"CoinbaseCommitment","type":"event"},{"anonymous":false,"inputs":[{"indexed":true,"internalType":"bytes32","name":"commitmentHash","type":"bytes32"},{"indexed":true,"internalType":"address","name":"owner","type":"address"}],"name":"CommitmentCreated","type":"event"},{"anonymous":false,"inputs":[{"indexed":true,"internalType":"bytes32","name":"commitmentHash","type":"bytes32"},{"indexed":true,"internalType":"address","name":"spender","type":"address"}],"name":"CommitmentSpent","type":"event"},{"anonymous":false,"inputs":[{"indexed":true,"internalType":"bytes32","name":"commitmentHash","type":"bytes32"},{"indexed":false,"internalType":"bool","name":"valid","type":"bool"}],"name":"RangeProofSubmitted","type":"event"},{"anonymous":false,"inputs":[{"indexed":true,"internalType":"bytes32","name":"txId","type":"bytes32"}],"name":"TransactionCreated","type":"event"},{"anonymous":false,"inputs":[{"indexed":true,"internalType":"bytes32","name":"txId","type":"bytes32"}],"name":"TransactionFinalized","type":"event"},{"inputs":[{"internalType":"bytes32","name":"","type":"bytes32"}],"name":"commitments","outputs":[{"internalType":"bytes32","name":"value","type":"bytes32"},{"internalType":"address","name":"owner","type":"address"},{"internalType":"bool","name":"spent","type":"bool"}],"stateMutability":"view","type":"function"},{"inputs":[{"internalType":"bytes32","name":"blindingFactor","type":"bytes32"},{"internalType":"uint256","name":"amount","type":"uint256"},{"internalType":"address","name":"owner","type":"address"}],"name":"computeCommitmentHash","outputs":[{"internalType":"bytes32","name":"","type":"bytes32"}],"stateMutability":"pure","type":"function"},{"inputs":[{"internalType":"bytes32","name":"blindingFactor","type":"bytes32"},{"internalType":"uint256","name":"amount","type":"uint256"}],"name":"createCommitment","outputs":[{"internalType":"bytes32","name":"commitmentHash","type":"bytes32"}],"stateMutability":"nonpayable","type":"function"},{"inputs":[{"internalType":"bytes32[]","name":"inputCommitments","type":"bytes32[]"},{"internalType":"bytes32[]","name":"outputCommitments","type":"bytes32[]"},{"internalType":"bytes32","name":"kernelCommitment","type":"bytes32"},{"internalType":"bytes32","name":"kernelSignature","type":"bytes32"}],"name":"createTransaction","outputs":[{"internalType":"bytes32","name":"txId","type":"bytes32"}],"stateMutability":"nonpayable","type":"function"},{"inputs":[{"internalType":"bytes32","name":"txId","type":"bytes32"}],"name":"finalizeTransaction","outputs":[],"stateMutability":"nonpayable","type":"function"},{"inputs":[{"internalType":"bytes32","name":"txId","type":"bytes32"}],"name":"getTransaction","outputs":[{"internalType":"bytes32[]","name":"inputCommitments","type":"bytes32[]"},{"internalType":"bytes32[]","name":"outputCommitments","type":"bytes32[]"},{"internalType":"bytes32","name":"kernelCommitment","type":"bytes32"},{"internalType":"bytes32","name":"kernelSignature","type":"bytes32"},{"internalType":"bool","name":"finalized","type":"bool"}],"stateMutability":"view","type":"function"},{"inputs":[],"name":"getUtxoCount","outputs":[{"internalType":"uint256","name":"","type":"uint256"}],"stateMutability":"view","type":"function"},{"inputs":[],"name":"getUtxoSet","outputs":[{"internalType":"bytes32[]","name":"","type":"bytes32[]"}],"stateMutability":"view","type":"function"},{"inputs":[{"internalType":"bytes32","name":"commitmentHash","type":"bytes32"}],"name":"isUnspent","outputs":[{"internalType":"bool","name":"","type":"bool"}],"stateMutability":"view","type":"function"},{"inputs":[{"internalType":"bytes32","name":"blindingFactor","type":"bytes32"},{"internalType":"uint256","name":"amount","type":"uint256"},{"internalType":"address","name":"recipient","type":"address"}],"name":"mintCoinbase","outputs":[{"internalType":"bytes32","name":"commitmentHash","type":"bytes32"}],"stateMutability":"nonpayable","type":"function"},{"inputs":[{"internalType":"bytes32","name":"","type":"bytes32"}],"name":"rangeProofs","outputs":[{"internalType":"bytes32","name":"commitmentHash","type":"bytes32"},{"internalType":"uint256","name":"minValue","type":"uint256"},{"internalType":"uint256","name":"maxValue","type":"uint256"},{"internalType":"bytes32","name":"proofHash","type":"bytes32"},{"internalType":"bool","name":"valid","type":"bool"}],"stateMutability":"view","type":"function"},{"inputs":[{"internalType":"bytes32","name":"commitmentHash","type":"bytes32"},{"internalType":"bytes32","name":"blindingFactor","type":"bytes32"},{"internalType":"uint256","name":"amount","type":"uint256"},{"internalType":"bytes32","name":"nonce","type":"bytes32"}],"name":"submitRangeProof","outputs":[{"internalType":"bool","name":"","type":"bool"}],"stateMutability":"nonpayable","type":"function"},{"inputs":[],"name":"totalCommitments","outputs":[{"internalType":"uint256","name":"","type":"uint256"}],"stateMutability":"view","type":"function"},{"inputs":[],"name":"totalTransactions","outputs":[{"internalType":"uint256","name":"","type":"uint256"}],"stateMutability":"view","type":"function"},{"inputs":[{"internalType":"uint256","name":"","type":"uint256"}],"name":"transactionIds","outputs":[{"internalType":"bytes32","name":"","type":"bytes32"}],"stateMutability":"view","type":"function"},{"inputs":[{"internalType":"bytes32","name":"","type":"bytes32"}],"name":"transactions","outputs":[{"internalType":"bytes32","name":"kernelCommitment","type":"bytes32"},{"internalType":"bytes32","name":"kernelSignature","type":"bytes32"},{"internalType":"bool","name":"finalized","type":"bool"}],"stateMutability":"view","type":"function"},{"inputs":[{"internalType":"uint256","name":"","type":"uint256"}],"name":"utxoSet","outputs":[{"internalType":"bytes32","name":"","type":"bytes32"}],"stateMutability":"view","type":"function"}],"evm":{"bytecode":{"linkReferences":{},"object":"608060405234801561001057600080fd5b5061142d806100206000396000f3fe608060405234801561001057600080fd5b506004361061010b5760003560e01c8063839df945116100a2578063b2efda8311610071578063b2efda83146102a4578063b9a60038146102b9578063d5bbae71146102c2578063e36f8dc5146102d5578063f495ac4c146102e857600080fd5b8063839df945146102085780638f9f114b146102695780639c36e6f71461027c578063a8502c331461029157600080fd5b80634b46ca0c116100de5780634b46ca0c146101755780635f20994d14610188578063642f2eaf146101ab57806378bb86d3146101ff57600080fd5b806307e149f4146101105780633136143c14610136578063400ed044146101495780634aae13ca14610151575b600080fd5b61012361011e36600461110e565b610351565b6040519081526020015b60405180910390f35b61012361014436600461110e565b61047f565b600354610123565b61016461015f366004611153565b610494565b60405161012d9594939291906111a8565b6101236101833660046111ed565b61057f565b61019b610196366004611153565b6106a2565b604051901515815260200161012d565b6101e26101b9366004611153565b600260208190526000918252604090912090810154600382015460049092015490919060ff1683565b60408051938452602084019290925215159082015260600161012d565b61012360055481565b610244610216366004611153565b600060208190529081526040902080546001909101546001600160a01b03811690600160a01b900460ff1683565b604080519384526001600160a01b03909216602084015215159082015260600161012d565b610123610277366004611153565b6106ea565b61028461070b565b60405161012d919061120f565b61019b61029f366004611229565b610763565b6102b76102b2366004611153565b610900565b005b61012360065481565b6101236102d03660046112a7565b610a47565b6101236102e3366004611153565b610f25565b6103276102f6366004611153565b6001602081905260009182526040909120805491810154600282015460038301546004909301549192909160ff1685565b6040805195865260208601949094529284019190915260608301521515608082015260a00161012d565b600061035e848484610f35565b6000818152602081905260409020600101549091506001600160a01b0316156103a25760405163c5f89f0560e01b8152600481018290526024015b60405180910390fd5b604080516060810182528281526001600160a01b0380851660208084019182526000848601818152878252918190529485209351845590516001938401805492511515600160a01b026001600160a81b0319909316919093161717905560038054918201815582527fc2575a0e9e593c00f959f8c92f12db2869c3395a3b0502d05e2516446f71f85b01829055600580549161043d8361133b565b90915550506040516001600160a01b0383169082907f4dcab03f83a733c35260a0103d46b7e6ef1186528d20cbb586b3cbc2f5b30f9f90600090a39392505050565b600061048c848484610f35565b949350505050565b6000818152600260208181526040808420928301546003840154600485015485548451818702810187019095528085526060978897909687968796929586956001870195919360ff9091169291879183018282801561051257602002820191906000526020600020905b8154815260200190600101908083116104fe575b505050505094508380548060200260200160405190810160405280929190818152602001828054801561056457602002820191906000526020600020905b815481526020019060010190808311610550575b50505050509350955095509550955095505091939590929450565b600061058c838333610f35565b6000818152602081905260409020600101549091506001600160a01b0316156105cb5760405163c5f89f0560e01b815260048101829052602401610399565b604080516060810182528281523360208083019182526000838501818152868252918190529384209251835590516001928301805492511515600160a01b026001600160a81b03199093166001600160a01b03929092169190911791909117905560038054918201815582527fc2575a0e9e593c00f959f8c92f12db2869c3395a3b0502d05e2516446f71f85b01829055600580549161066a8361133b565b9091555050604051339082907f0802a3ea8270dd07b2cfabffb35a0d45b28e881127824ad30255fb8acae99b7790600090a392915050565b600081815260208190526040812060010154600160a01b900460ff161580156106e457506000828152602081905260409020600101546001600160a01b031615155b92915050565b600381815481106106fa57600080fd5b600091825260209091200154905081565b6060600380548060200260200160405190810160405280929190818152602001828054801561075957602002820191906000526020600020905b815481526020019060010190808311610745575b5050505050905090565b6000848152602081905260408120600101546001600160a01b031661079e576040516307cd98ab60e51b815260048101869052602401610399565b6000858152602081905260408120600101546107c690869086906001600160a01b0316610f35565b9050600086821480156107e0575067ffffffffffffffff85105b60408051602081018a9052600091810182905267ffffffffffffffff6060820152608081018790529192509060a0016040516020818303038152906040528051906020012090506040518060a001604052808981526020016000815260200167ffffffffffffffff80168152602001828152602001831515815250600160008a81526020019081526020016000206000820151816000015560208201518160010155604082015181600201556060820151816003015560808201518160040160006101000a81548160ff021916908315150217905550905050877f495a6d84a0a777795c64a73198de1ea306ca61a4e93eb57fcb2ab7ce8dbdf9de836040516108ed911515815260200190565b60405180910390a2509695505050505050565b60008181526002602081905260409091209081015461093557604051633e72a59f60e21b815260048101839052602401610399565b600481015460ff161561095e57604051630c4093d360e21b815260048101839052602401610399565b60005b81548110156109f057600082600001828154811061098157610981611354565b6000918252602080832090910154808352908290526040909120600101805460ff60a01b1916600160a01b17905590506109ba81610f7d565b604051339082907fc2a218f1d69c685f33bbbde130a7e6917fdffa6e8b89b3dc44c093d1bffb6e3e90600090a350600101610961565b5060005b6001820154811015610a08576001016109f4565b5060048101805460ff1916600117905560405182907f24196ec40f90671b7144e716978686b4f3c7d6b00b23da3971ef2b52af27d87f90600090a25050565b6000858103610a6957604051631b72db3760e31b815260040160405180910390fd5b6000849003610a8b57604051633835622960e01b815260040160405180910390fd5b60005b86811015610bb1576000888883818110610aaa57610aaa611354565b60209081029290920135600081815292839052604090922060010154919250506001600160a01b0316610af3576040516307cd98ab60e51b815260048101829052602401610399565b600081815260208190526040902060010154600160a01b900460ff1615610b305760405163707d44e360e11b815260048101829052602401610399565b6000818152602081905260409020600101546001600160a01b03163314610b735760405163216ccfd360e11b815260048101829052336024820152604401610399565b60008181526001602052604090206004015460ff16610ba85760405163d838a11560e01b815260048101829052602401610399565b50600101610a8e565b5060005b84811015610c58576000868683818110610bd157610bd1611354565b60209081029290920135600081815292839052604090922060010154919250506001600160a01b0316610c1a576040516307cd98ab60e51b815260048101829052602401610399565b60008181526001602052604090206004015460ff16610c4f5760405163d838a11560e01b815260048101829052602401610399565b50600101610bb5565b50610cc887878080602002602001604051908101604052809392919081815260200183836020028082843760009201919091525050604080516020808b0282810182019093528a82529093508a92508991829185019084908082843760009201919091525088925061102f915050565b610ce557604051638f54ce6160e01b815260040160405180910390fd5b600087878787604051602001610cfe949392919061139c565b60408051601f1981840301815282825280516020918201209083018790529082018190529150600090606001604051602081830303815290604052805190602001209050808414610d6257604051633b09ff1f60e21b815260040160405180910390fd5b804233604051602001610d9a93929190928352602083019190915260601b6bffffffffffffffffffffffff1916604082015260540190565b6040516020818303038152906040528051906020012092506040518060a001604052808a8a808060200260200160405190810160405280939291908181526020018383602002808284376000920191909152505050908252506040805160208a810282810182019093528a82529283019290918b918b918291850190849080828437600092018290525093855250505060208083018990526040808401899052606090930182905286825260028152919020825180519192610e61928492909101906110ae565b506020828101518051610e7a92600185019201906110ae565b5060408201516002820155606082015160038201556080909101516004918201805460ff1916911515919091179055805460018101825560009182527f8a35acfbc15ff81a39ae7d344fd709f28e8600b4aa8c65c6b64bfe7fe36bd19b018490556006805491610ee98361133b565b909155505060405183907fee4f8d3f28d7484641670775568c295b034d27b0e9d9978fbee2ab15c770709490600090a250509695505050505050565b600481815481106106fa57600080fd5b60408051602080820195909552808201939093526bffffffffffffffffffffffff19606092831b16918301919091528051605481840301815260749092019052805191012090565b60035460005b8181101561102a578260038281548110610f9f57610f9f611354565b906000526020600020015403611022576003610fbc6001846113ce565b81548110610fcc57610fcc611354565b906000526020600020015460038281548110610fea57610fea611354565b6000918252602090912001556003805480611007576110076113e1565b60019003818190600052602060002001600090559055505050565b600101610f83565b505050565b60008080805b86518110156110695786818151811061105057611050611354565b6020026020010151831892508080600101915050611035565b5060005b85518110156110a15785818151811061108857611088611354565b602002602001015182189150808060010191505061106d565b5018821490509392505050565b8280548282559060005260206000209081019282156110e9579160200282015b828111156110e95782518255916020019190600101906110ce565b506110f59291506110f9565b5090565b5b808211156110f557600081556001016110fa565b60008060006060848603121561112357600080fd5b833592506020840135915060408401356001600160a01b038116811461114857600080fd5b809150509250925092565b60006020828403121561116557600080fd5b5035919050565b60008151808452602080850194506020840160005b8381101561119d57815187529582019590820190600101611181565b509495945050505050565b60a0815260006111bb60a083018861116c565b82810360208401526111cd818861116c565b604084019690965250506060810192909252151560809091015292915050565b6000806040838503121561120057600080fd5b50508035926020909101359150565b602081526000611222602083018461116c565b9392505050565b6000806000806080858703121561123f57600080fd5b5050823594602084013594506040840135936060013592509050565b60008083601f84011261126d57600080fd5b50813567ffffffffffffffff81111561128557600080fd5b6020830191508360208260051b85010111156112a057600080fd5b9250929050565b600080600080600080608087890312156112c057600080fd5b863567ffffffffffffffff808211156112d857600080fd5b6112e48a838b0161125b565b909850965060208901359150808211156112fd57600080fd5b5061130a89828a0161125b565b979a9699509760408101359660609091013595509350505050565b634e487b7160e01b600052601160045260246000fd5b60006001820161134d5761134d611325565b5060010190565b634e487b7160e01b600052603260045260246000fd5b81835260006001600160fb1b0383111561138357600080fd5b8260051b80836020870137939093016020019392505050565b6040815260006113b060408301868861136a565b82810360208401526113c381858761136a565b979650505050505050565b818103818111156106e4576106e4611325565b634e487b7160e01b600052603160045260246000fdfea26469706673582212203ac06d24e12f9bfae1b180978c4a0a4800f17bc8ef90335bfe9fe5316a532af764736f6c63430008180033","opcodes":"PUSH1 0x80 PUSH1 0x40 MSTORE CALLVALUE DUP1 ISZERO PUSH2 0x10 JUMPI PUSH1 0x0 DUP1 REVERT JUMPDEST POP PUSH2 0x142D DUP1 PUSH2 0x20 PUSH1 0x0 CODECOPY PUSH1 0x0 RETURN INVALID PUSH1 0x80 PUSH1 0x40 MSTORE CALLVALUE DUP1 ISZERO PUSH2 0x10 JUMPI PUSH1 0x0 DUP1 REVERT JUMPDEST POP PUSH1 0x4 CALLDATASIZE LT PUSH2 0x10B JUMPI PUSH1 0x0 CALLDATALOAD PUSH1 0xE0 SHR DUP1 PUSH4 0x839DF945 GT PUSH2 0xA2 JUMPI DUP1 PUSH4 0xB2EFDA83 GT PUSH2 0x71 JUMPI DUP1 PUSH4 0xB2EFDA83 EQ PUSH2 0x2A4 JUMPI DUP1 PUSH4 0xB9A60038 EQ PUSH2 0x2B9 JUMPI DUP1 PUSH4 0xD5BBAE71 EQ PUSH2 0x2C2 JUMPI DUP1 PUSH4 0xE36F8DC5 EQ PUSH2 0x2D5 JUMPI DUP1 PUSH4 0xF495AC4C EQ PUSH2 0x2E8 JUMPI PUSH1 0x0 DUP1 REVERT JUMPDEST DUP1 PUSH4 0x839DF945 EQ PUSH2 0x208 JUMPI DUP1 PUSH4 0x8F9F114B EQ PUSH2 0x269 JUMPI DUP1 PUSH4 0x9C36E6F7 EQ PUSH2 0x27C JUMPI DUP1 PUSH4 0xA8502C33 EQ PUSH2 0x291 JUMPI PUSH1 0x0 DUP1 REVERT JUMPDEST DUP1 PUSH4 0x4B46CA0C GT PUSH2 0xDE JUMPI DUP1 PUSH4 0x4B46CA0C EQ PUSH2 0x175 JUMPI DUP1 PUSH4 0x5F20994D EQ PUSH2 0x188 JUMPI DUP1 PUSH4 0x642F2EAF EQ PUSH2 0x1AB JUMPI DUP1 PUSH4 0x78BB86D3 EQ PUSH2 0x1FF JUMPI PUSH1 0x0 DUP1 REVERT JUMPDEST DUP1 PUSH4 0x7E149F4 EQ PUSH2 0x110 JUMPI DUP1 PUSH4 0x3136143C EQ PUSH2 0x136 JUMPI DUP1 PUSH4 0x400ED044 EQ PUSH2 0x149 JUMPI DUP1 PUSH4 0x4AAE13CA EQ PUSH2 0x151 JUMPI JUMPDEST PUSH1 0x0 DUP1 REVERT JUMPDEST PUSH2 0x123 PUSH2 0x11E CALLDATASIZE PUSH1 0x4 PUSH2 0x110E JUMP JUMPDEST PUSH2 0x351 JUMP JUMPDEST PUSH1 0x40 MLOAD SWAP1 DUP2 MSTORE PUSH1 0x20 ADD JUMPDEST PUSH1 0x40 MLOAD DUP1 SWAP2 SUB SWAP1 RETURN JUMPDEST PUSH2 0x123 PUSH2 0x144 CALLDATASIZE PUSH1 0x4 PUSH2 0x110E JUMP JUMPDEST PUSH2 0x47F JUMP JUMPDEST PUSH1 0x3 SLOAD PUSH2 0x123 JUMP JUMPDEST PUSH2 0x164 PUSH2 0x15F CALLDATASIZE PUSH1 0x4 PUSH2 0x1153 JUMP JUMPDEST PUSH2 0x494 JUMP JUMPDEST PUSH1 0x40 MLOAD PUSH2 0x12D SWAP6 SWAP5 SWAP4 SWAP3 SWAP2 SWAP1 PUSH2 0x11A8 JUMP JUMPDEST PUSH2 0x123 PUSH2 0x183 CALLDATASIZE PUSH1 0x4 PUSH2 0x11ED JUMP JUMPDEST PUSH2 0x57F JUMP JUMPDEST PUSH2 0x19B PUSH2 0x196 CALLDATASIZE PUSH1 0x4 PUSH2 0x1153 JUMP JUMPDEST PUSH2 0x6A2 JUMP JUMPDEST PUSH1 0x40 MLOAD SWAP1 ISZERO ISZERO DUP2 MSTORE PUSH1 0x20 ADD PUSH2 0x12D JUMP JUMPDEST PUSH2 0x1E2 PUSH2 0x1B9 CALLDATASIZE PUSH1 0x4 PUSH2 0x1153 JUMP JUMPDEST PUSH1 0x2 PUSH1 0x20 DUP2 SWAP1 MSTORE PUSH1 0x0 SWAP2 DUP3 MSTORE PUSH1 0x40 SWAP1 SWAP2 KECCAK256 SWAP1 DUP2 ADD SLOAD PUSH1 0x3 DUP3 ADD SLOAD PUSH1 0x4 SWAP1 SWAP3 ADD SLOAD SWAP1 SWAP2 SWAP1 PUSH1 0xFF AND DUP4 JUMP JUMPDEST PUSH1 0x40 DUP1 MLOAD SWAP4 DUP5 MSTORE PUSH1 0x20 DUP5 ADD SWAP3 SWAP1 SWAP3 MSTORE ISZERO ISZERO SWAP1 DUP3 ADD MSTORE PUSH1 0x60 ADD PUSH2 0x12D JUMP JUMPDEST PUSH2 0x123 PUSH1 0x5 SLOAD DUP2 JUMP JUMPDEST PUSH2 0x244 PUSH2 0x216 CALLDATASIZE PUSH1 0x4 PUSH2 0x1153 JUMP JUMPDEST PUSH1 0x0 PUSH1 0x20 DUP2 SWAP1 MSTORE SWAP1 DUP2 MSTORE PUSH1 0x40 SWAP1 KECCAK256 DUP1 SLOAD PUSH1 0x1 SWAP1 SWAP2 ADD SLOAD PUSH1 0x1 PUSH1 0x1 PUSH1 0xA0 SHL SUB DUP2 AND SWAP1 PUSH1 0x1 PUSH1 0xA0 SHL SWAP1 DIV PUSH1 0xFF AND DUP4 JUMP JUMPDEST PUSH1 0x40 DUP1 MLOAD SWAP4 DUP5 MSTORE PUSH1 0x1 PUSH1 0x1 PUSH1 0xA0 SHL SUB SWAP1 SWAP3 AND PUSH1 0x20 DUP5 ADD MSTORE ISZERO ISZERO SWAP1 DUP3 ADD MSTORE PUSH1 0x60 ADD PUSH2 0x12D JUMP JUMPDEST PUSH2 0x123 PUSH2 0x277 CALLDATASIZE PUSH1 0x4 PUSH2 0x1153 JUMP JUMPDEST PUSH2 0x6EA JUMP JUMPDEST PUSH2 0x284 PUSH2 0x70B JUMP JUMPDEST PUSH1 0x40 MLOAD PUSH2 0x12D SWAP2 SWAP1 PUSH2 0x120F JUMP JUMPDEST PUSH2 0x19B PUSH2 0x29F CALLDATASIZE PUSH1 0x4 PUSH2 0x1229 JUMP JUMPDEST PUSH2 0x763 JUMP JUMPDEST PUSH2 0x2B7 PUSH2 0x2B2 CALLDATASIZE PUSH1 0x4 PUSH2 0x1153 JUMP JUMPDEST PUSH2 0x900 JUMP JUMPDEST STOP JUMPDEST PUSH2 0x123 PUSH1 0x6 SLOAD DUP2 JUMP JUMPDEST PUSH2 0x123 PUSH2 0x2D0 CALLDATASIZE PUSH1 0x4 PUSH2 0x12A7 JUMP JUMPDEST PUSH2 0xA47 JUMP JUMPDEST PUSH2 0x123 PUSH2 0x2E3 CALLDATASIZE PUSH1 0x4 PUSH2 0x1153 JUMP JUMPDEST PUSH2 0xF25 JUMP JUMPDEST PUSH2 0x327 PUSH2 0x2F6 CALLDATASIZE PUSH1 0x4 PUSH2 0x1153 JUMP JUMPDEST PUSH1 0x1 PUSH1 0x20 DUP2 SWAP1 MSTORE PUSH1 0x0 SWAP2 DUP3 MSTORE PUSH1 0x40 SWAP1 SWAP2 KECCAK256 DUP1 SLOAD SWAP2 DUP2 ADD SLOAD PUSH1 0x2 DUP3 ADD SLOAD PUSH1 0x3 DUP4 ADD SLOAD PUSH1 0x4 SWAP1 SWAP4 ADD SLOAD SWAP2 SWAP3 SWAP1 SWAP2 PUSH1 0xFF AND DUP6 JUMP JUMPDEST PUSH1 0x40 DUP1 MLOAD SWAP6 DUP7 MSTORE PUSH1 0x20 DUP7 ADD SWAP5 SWAP1 SWAP5 MSTORE SWAP3 DUP5 ADD SWAP2 SWAP1 SWAP2 MSTORE PUSH1 0x60 DUP4 ADD MSTORE ISZERO ISZERO PUSH1 0x80 DUP3 ADD MSTORE PUSH1 0xA0 ADD PUSH2 0x12D JUMP JUMPDEST PUSH1 0x0 PUSH2 0x35E DUP5 DUP5 DUP5 PUSH2 0xF35 JUMP JUMPDEST PUSH1 0x0 DUP2 DUP2 MSTORE PUSH1 0x20 DUP2 SWAP1 MSTORE PUSH1 0x40 SWAP1 KECCAK256 PUSH1 0x1 ADD SLOAD SWAP1 SWAP2 POP PUSH1 0x1 PUSH1 0x1 PUSH1 0xA0 SHL SUB AND ISZERO PUSH2 0x3A2 JUMPI PUSH1 0x40 MLOAD PUSH4 0xC5F89F05 PUSH1 0xE0 SHL DUP2 MSTORE PUSH1 0x4 DUP2 ADD DUP3 SWAP1 MSTORE PUSH1 0x24 ADD JUMPDEST PUSH1 0x40 MLOAD DUP1 SWAP2 SUB SWAP1 REVERT JUMPDEST PUSH1 0x40 DUP1 MLOAD PUSH1 0x60 DUP2 ADD DUP3 MSTORE DUP3 DUP2 MSTORE PUSH1 0x1 PUSH1 0x1 PUSH1 0xA0 SHL SUB DUP1 DUP6 AND PUSH1 0x20 DUP1 DUP5 ADD SWAP2 DUP3 MSTORE PUSH1 0x0 DUP5 DUP7 ADD DUP2 DUP2 MSTORE DUP8 DUP3 MSTORE SWAP2 DUP2 SWAP1 MSTORE SWAP5 DUP6 KECCAK256 SWAP4 MLOAD DUP5 SSTORE SWAP1 MLOAD PUSH1 0x1 SWAP4 DUP5 ADD DUP1 SLOAD SWAP3 MLOAD ISZERO ISZERO PUSH1 0x1 PUSH1 0xA0 SHL MUL PUSH1 0x1 PUSH1 0x1 PUSH1 0xA8 SHL SUB NOT SWAP1 SWAP4 AND SWAP2 SWAP1 SWAP4 AND OR OR SWAP1 SSTORE PUSH1 0x3 DUP1 SLOAD SWAP2 DUP3 ADD DUP2 SSTORE DUP3 MSTORE PUSH32 0xC2575A0E9E593C00F959F8C92F12DB2869C3395A3B0502D05E2516446F71F85B ADD DUP3 SWAP1 SSTORE PUSH1 0x5 DUP1 SLOAD SWAP2 PUSH2 0x43D DUP4 PUSH2 0x133B JUMP JUMPDEST SWAP1 SWAP2 SSTORE POP POP PUSH1 0x40 MLOAD PUSH1 0x1 PUSH1 0x1 PUSH1 0xA0 SHL SUB DUP4 AND SWAP1 DUP3 SWAP1 PUSH32 0x4DCAB03F83A733C35260A0103D46B7E6EF1186528D20CBB586B3CBC2F5B30F9F SWAP1 PUSH1 0x0 SWAP1 LOG3 SWAP4 SWAP3 POP POP POP JUMP JUMPDEST PUSH1 0x0 PUSH2 0x48C DUP5 DUP5 DUP5 PUSH2 0xF35 JUMP JUMPDEST SWAP5 SWAP4 POP POP POP POP JUMP JUMPDEST PUSH1 0x0 DUP2 DUP2 MSTORE PUSH1 0x2 PUSH1 0x20 DUP2 DUP2 MSTORE PUSH1 0x40 DUP1 DUP5 KECCAK256 SWAP3 DUP4 ADD SLOAD PUSH1 0x3 DUP5 ADD SLOAD PUSH1 0x4 DUP6 ADD SLOAD DUP6 SLOAD DUP5 MLOAD DUP2 DUP8 MUL DUP2 ADD DUP8 ADD SWAP1 SWAP6 MSTORE DUP1 DUP6 MSTORE PUSH1 0x60 SWAP8 DUP9 SWAP8 SWAP1 SWAP7 DUP8 SWAP7 DUP8 SWAP7 SWAP3 SWAP6 DUP7 SWAP6 PUSH1 0x1 DUP8 ADD SWAP6 SWAP2 SWAP4 PUSH1 0xFF SWAP1 SWAP2 AND SWAP3 SWAP2 DUP8 SWAP2 DUP4 ADD DUP3 DUP3 DUP1 ISZERO PUSH2 0x512 JUMPI PUSH1 0x20 MUL DUP3 ADD SWAP2 SWAP1 PUSH1 0x0 MSTORE PUSH1 0x20 PUSH1 0x0 KECCAK256 SWAP1 JUMPDEST DUP2 SLOAD DUP2 MSTORE PUSH1 0x20 ADD SWAP1 PUSH1 0x1 ADD SWAP1 DUP1 DUP4 GT PUSH2 0x4FE JUMPI JUMPDEST POP POP POP POP POP SWAP5 POP DUP4 DUP1 SLOAD DUP1 PUSH1 0x20 MUL PUSH1 0x20 ADD PUSH1 0x40 MLOAD SWAP1 DUP2 ADD PUSH1 0x40 MSTORE DUP1 SWAP3 SWAP2 SWAP1 DUP2 DUP2 MSTORE PUSH1 0x20 ADD DUP3 DUP1 SLOAD DUP1 ISZERO PUSH2 0x564 JUMPI PUSH1 0x20 MUL DUP3 ADD SWAP2 SWAP1 PUSH1 0x0 MSTORE PUSH1 0x20 PUSH1 0x0 KECCAK256 SWAP1 JUMPDEST DUP2 SLOAD DUP2 MSTORE PUSH1 0x20 ADD SWAP1 PUSH1 0x1 ADD SWAP1 DUP1 DUP4 GT PUSH2 0x550 JUMPI JUMPDEST POP POP POP POP POP SWAP4 POP SWAP6 POP SWAP6 POP SWAP6 POP SWAP6 POP SWAP6 POP POP SWAP2 SWAP4 SWAP6 SWAP1 SWAP3 SWAP5 POP JUMP JUMPDEST PUSH1 0x0 PUSH2 0x58C DUP4 DUP4 CALLER PUSH2 0xF35 JUMP JUMPDEST PUSH1 0x0 DUP2 DUP2 MSTORE PUSH1 0x20 DUP2 SWAP1 MSTORE PUSH1 0x40 SWAP1 KECCAK256 PUSH1 0x1 ADD SLOAD SWAP1 SWAP2 POP PUSH1 0x1 PUSH1 0x1 PUSH1 0xA0 SHL SUB AND ISZERO PUSH2 0x5CB JUMPI PUSH1 0x40 MLOAD PUSH4 0xC5F89F05 PUSH1 0xE0 SHL DUP2 MSTORE PUSH1 0x4 DUP2 ADD DUP3 SWAP1 MSTORE PUSH1 0x24 ADD PUSH2 0x399 JUMP JUMPDEST PUSH1 0x40 DUP1 MLOAD PUSH1 0x60 DUP2 ADD DUP3 MSTORE DUP3 DUP2 MSTORE CALLER PUSH1 0x20 DUP1 DUP4 ADD SWAP2 DUP3 MSTORE PUSH1 0x0 DUP4 DUP6 ADD DUP2 DUP2 MSTORE DUP7 DUP3 MSTORE SWAP2 DUP2 SWAP1 MSTORE SWAP4 DUP5 KECCAK256 SWAP3 MLOAD DUP4 SSTORE SWAP1 MLOAD PUSH1 0x1 SWAP3 DUP4 ADD DUP1 SLOAD SWAP3 MLOAD ISZERO ISZERO PUSH1 0x1 PUSH1 0xA0 SHL MUL PUSH1 0x1 PUSH1 0x1 PUSH1 0xA8 SHL SUB NOT SWAP1 SWAP4 AND PUSH1 0x1 PUSH1 0x1 PUSH1 0xA0 SHL SUB SWAP3 SWAP1 SWAP3 AND SWAP2 SWAP1 SWAP2 OR SWAP2 SWAP1 SWAP2 OR SWAP1 SSTORE PUSH1 0x3 DUP1 SLOAD SWAP2 DUP3 ADD DUP2 SSTORE DUP3 MSTORE PUSH32 0xC2575A0E9E593C00F959F8C92F12DB2869C3395A3B0502D05E2516446F71F85B ADD DUP3 SWAP1 SSTORE PUSH1 0x5 DUP1 SLOAD SWAP2 PUSH2 0x66A DUP4 PUSH2 0x133B JUMP JUMPDEST SWAP1 SWAP2 SSTORE POP POP PUSH1 0x40 MLOAD CALLER SWAP1 DUP3 SWAP1 PUSH32 0x802A3EA8270DD07B2CFABFFB35A0D45B28E881127824AD30255FB8ACAE99B77 SWAP1 PUSH1 0x0 SWAP1 LOG3 SWAP3 SWAP2 POP POP JUMP JUMPDEST PUSH1 0x0 DUP2 DUP2 MSTORE PUSH1 0x20 DUP2 SWAP1 MSTORE PUSH1 0x40 DUP2 KECCAK256 PUSH1 0x1 ADD SLOAD PUSH1 0x1 PUSH1 0xA0 SHL SWAP1 DIV PUSH1 0xFF AND ISZERO DUP1 ISZERO PUSH2 0x6E4 JUMPI POP PUSH1 0x0 DUP3 DUP2 MSTORE PUSH1 0x20 DUP2 SWAP1 MSTORE PUSH1 0x40 SWAP1 KECCAK256 PUSH1 0x1 ADD SLOAD PUSH1 0x1 PUSH1 0x1 PUSH1 0xA0 SHL SUB AND ISZERO ISZERO JUMPDEST SWAP3 SWAP2 POP POP JUMP JUMPDEST PUSH1 0x3 DUP2 DUP2 SLOAD DUP2 LT PUSH2 0x6FA JUMPI PUSH1 0x0 DUP1 REVERT JUMPDEST PUSH1 0x0 SWAP2 DUP3 MSTORE PUSH1 0x20 SWAP1 SWAP2 KECCAK256 ADD SLOAD SWAP1 POP DUP2 JUMP JUMPDEST PUSH1 0x60 PUSH1 0x3 DUP1 SLOAD DUP1 PUSH1 0x20 MUL PUSH1 0x20 ADD PUSH1 0x40 MLOAD SWAP1 DUP2 ADD PUSH1 0x40 MSTORE DUP1 SWAP3 SWAP2 SWAP1 DUP2 DUP2 MSTORE PUSH1 0x20 ADD DUP3 DUP1 SLOAD DUP1 ISZERO PUSH2 0x759 JUMPI PUSH1 0x20 MUL DUP3 ADD SWAP2 SWAP1 PUSH1 0x0 MSTORE PUSH1 0x20 PUSH1 0x0 KECCAK256 SWAP1 JUMPDEST DUP2 SLOAD DUP2 MSTORE PUSH1 0x20 ADD SWAP1 PUSH1 0x1 ADD SWAP1 DUP1 DUP4 GT PUSH2 0x745 JUMPI JUMPDEST POP POP POP POP POP SWAP1 POP SWAP1 JUMP JUMPDEST PUSH1 0x0 DUP5 DUP2 MSTORE PUSH1 0x20 DUP2 SWAP1 MSTORE PUSH1 0x40 DUP2 KECCAK256 PUSH1 0x1 ADD SLOAD PUSH1 0x1 PUSH1 0x1 PUSH1 0xA0 SHL SUB AND PUSH2 0x79E JUMPI PUSH1 0x40 MLOAD PUSH4 0x7CD98AB PUSH1 0xE5 SHL DUP2 MSTORE PUSH1 0x4 DUP2 ADD DUP7 SWAP1 MSTORE PUSH1 0x24 ADD PUSH2 0x399 JUMP JUMPDEST PUSH1 0x0 DUP6 DUP2 MSTORE PUSH1 0x20 DUP2 SWAP1 MSTORE PUSH1 0x40 DUP2 KECCAK256 PUSH1 0x1 ADD SLOAD PUSH2 0x7C6 SWAP1 DUP7 SWAP1 DUP7 SWAP1 PUSH1 0x1 PUSH1 0x1 PUSH1 0xA0 SHL SUB AND PUSH2 0xF35 JUMP JUMPDEST SWAP1 POP PUSH1 0x0 DUP7 DUP3 EQ DUP1 ISZERO PUSH2 0x7E0 JUMPI POP PUSH8 0xFFFFFFFFFFFFFFFF DUP6 LT JUMPDEST PUSH1 0x40 DUP1 MLOAD PUSH1 0x20 DUP2 ADD DUP11 SWAP1 MSTORE PUSH1 0x0 SWAP2 DUP2 ADD DUP3 SWAP1 MSTORE PUSH8 0xFFFFFFFFFFFFFFFF PUSH1 0x60 DUP3 ADD MSTORE PUSH1 0x80 DUP2 ADD DUP8 SWAP1 MSTORE SWAP2 SWAP3 POP SWAP1 PUSH1 0xA0 ADD PUSH1 0x40 MLOAD PUSH1 0x20 DUP2 DUP4 SUB SUB DUP2 MSTORE SWAP1 PUSH1 0x40 MSTORE DUP1 MLOAD SWAP1 PUSH1 0x20 ADD KECCAK256 SWAP1 POP PUSH1 0x40 MLOAD DUP1 PUSH1 0xA0 ADD PUSH1 0x40 MSTORE DUP1 DUP10 DUP2 MSTORE PUSH1 0x20 ADD PUSH1 0x0 DUP2 MSTORE PUSH1 0x20 ADD PUSH8 0xFFFFFFFFFFFFFFFF DUP1 AND DUP2 MSTORE PUSH1 0x20 ADD DUP3 DUP2 MSTORE PUSH1 0x20 ADD DUP4 ISZERO ISZERO DUP2 MSTORE POP PUSH1 0x1 PUSH1 0x0 DUP11 DUP2 MSTORE PUSH1 0x20 ADD SWAP1 DUP2 MSTORE PUSH1 0x20 ADD PUSH1 0x0 KECCAK256 PUSH1 0x0 DUP3 ADD MLOAD DUP2 PUSH1 0x0 ADD SSTORE PUSH1 0x20 DUP3 ADD MLOAD DUP2 PUSH1 0x1 ADD SSTORE PUSH1 0x40 DUP3 ADD MLOAD DUP2 PUSH1 0x2 ADD SSTORE PUSH1 0x60 DUP3 ADD MLOAD DUP2 PUSH1 0x3 ADD SSTORE PUSH1 0x80 DUP3 ADD MLOAD DUP2 PUSH1 0x4 ADD PUSH1 0x0 PUSH2 0x100 EXP DUP2 SLOAD DUP2 PUSH1 0xFF MUL NOT AND SWAP1 DUP4 ISZERO ISZERO MUL OR SWAP1 SSTORE POP SWAP1 POP POP DUP8 PUSH32 0x495A6D84A0A777795C64A73198DE1EA306CA61A4E93EB57FCB2AB7CE8DBDF9DE DUP4 PUSH1 0x40 MLOAD PUSH2 0x8ED SWAP2 ISZERO ISZERO DUP2 MSTORE PUSH1 0x20 ADD SWAP1 JUMP JUMPDEST PUSH1 0x40 MLOAD DUP1 SWAP2 SUB SWAP1 LOG2 POP SWAP7 SWAP6 POP POP POP POP POP POP JUMP JUMPDEST PUSH1 0x0 DUP2 DUP2 MSTORE PUSH1 0x2 PUSH1 0x20 DUP2 SWAP1 MSTORE PUSH1 0x40 SWAP1 SWAP2 KECCAK256 SWAP1 DUP2 ADD SLOAD PUSH2 0x935 JUMPI PUSH1 0x40 MLOAD PUSH4 0x3E72A59F PUSH1 0xE2 SHL DUP2 MSTORE PUSH1 0x4 DUP2 ADD DUP4 SWAP1 MSTORE PUSH1 0x24 ADD PUSH2 0x399 JUMP JUMPDEST PUSH1 0x4 DUP2 ADD SLOAD PUSH1 0xFF AND ISZERO PUSH2 0x95E JUMPI PUSH1 0x40 MLOAD PUSH4 0xC4093D3 PUSH1 0xE2 SHL DUP2 MSTORE PUSH1 0x4 DUP2 ADD DUP4 SWAP1 MSTORE PUSH1 0x24 ADD PUSH2 0x399 JUMP JUMPDEST PUSH1 0x0 JUMPDEST DUP2 SLOAD DUP2 LT ISZERO PUSH2 0x9F0 JUMPI PUSH1 0x0 DUP3 PUSH1 0x0 ADD DUP3 DUP2 SLOAD DUP2 LT PUSH2 0x981 JUMPI PUSH2 0x981 PUSH2 0x1354 JUMP JUMPDEST PUSH1 0x0 SWAP2 DUP3 MSTORE PUSH1 0x20 DUP1 DUP4 KECCAK256 SWAP1 SWAP2 ADD SLOAD DUP1 DUP4 MSTORE SWAP1 DUP3 SWAP1 MSTORE PUSH1 0x40 SWAP1 SWAP2 KECCAK256 PUSH1 0x1 ADD DUP1 SLOAD PUSH1 0xFF PUSH1 0xA0 SHL NOT AND PUSH1 0x1 PUSH1 0xA0 SHL OR SWAP1 SSTORE SWAP1 POP PUSH2 0x9BA DUP2 PUSH2 0xF7D JUMP JUMPDEST PUSH1 0x40 MLOAD CALLER SWAP1 DUP3 SWAP1 PUSH32 0xC2A218F1D69C685F33BBBDE130A7E6917FDFFA6E8B89B3DC44C093D1BFFB6E3E SWAP1 PUSH1 0x0 SWAP1 LOG3 POP PUSH1 0x1 ADD PUSH2 0x961 JUMP JUMPDEST POP PUSH1 0x0 JUMPDEST PUSH1 0x1 DUP3 ADD SLOAD DUP2 LT ISZERO PUSH2 0xA08 JUMPI PUSH1 0x1 ADD PUSH2 0x9F4 JUMP JUMPDEST POP PUSH1 0x4 DUP2 ADD DUP1 SLOAD PUSH1 0xFF NOT AND PUSH1 0x1 OR SWAP1 SSTORE PUSH1 0x40 MLOAD DUP3 SWAP1 PUSH32 0x24196EC40F90671B7144E716978686B4F3C7D6B00B23DA3971EF2B52AF27D87F SWAP1 PUSH1 0x0 SWAP1 LOG2 POP POP JUMP JUMPDEST PUSH1 0x0 DUP6 DUP2 SUB PUSH2 0xA69 JUMPI PUSH1 0x40 MLOAD PUSH4 0x1B72DB37 PUSH1 0xE3 SHL DUP2 MSTORE PUSH1 0x4 ADD PUSH1 0x40 MLOAD DUP1 SWAP2 SUB SWAP1 REVERT JUMPDEST PUSH1 0x0 DUP5 SWAP1 SUB PUSH2 0xA8B JUMPI PUSH1 0x40 MLOAD PUSH4 0x38356229 PUSH1 0xE0 SHL DUP2 MSTORE PUSH1 0x4 ADD PUSH1 0x40 MLOAD DUP1 SWAP2 SUB SWAP1 REVERT JUMPDEST PUSH1 0x0 JUMPDEST DUP7 DUP2 LT ISZERO PUSH2 0xBB1 JUMPI PUSH1 0x0 DUP9 DUP9 DUP4 DUP2 DUP2 LT PUSH2 0xAAA JUMPI PUSH2 0xAAA PUSH2 0x1354 JUMP JUMPDEST PUSH1 0x20 SWAP1 DUP2 MUL SWAP3 SWAP1 SWAP3 ADD CALLDATALOAD PUSH1 0x0 DUP2 DUP2 MSTORE SWAP3 DUP4 SWAP1 MSTORE PUSH1 0x40 SWAP1 SWAP3 KECCAK256 PUSH1 0x1 ADD SLOAD SWAP2 SWAP3 POP POP PUSH1 0x1 PUSH1 0x1 PUSH1 0xA0 SHL SUB AND PUSH2 0xAF3 JUMPI PUSH1 0x40 MLOAD PUSH4 0x7CD98AB PUSH1 0xE5 SHL DUP2 MSTORE PUSH1 0x4 DUP2 ADD DUP3 SWAP1 MSTORE PUSH1 0x24 ADD PUSH2 0x399 JUMP JUMPDEST PUSH1 0x0 DUP2 DUP2 MSTORE PUSH1 0x20 DUP2 SWAP1 MSTORE PUSH1 0x40 SWAP1 KECCAK256 PUSH1 0x1 ADD SLOAD PUSH1 0x1 PUSH1 0xA0 SHL SWAP1 DIV PUSH1 0xFF AND ISZERO PUSH2 0xB30 JUMPI PUSH1 0x40 MLOAD PUSH4 0x707D44E3 PUSH1 0xE1 SHL DUP2 MSTORE PUSH1 0x4 DUP2 ADD DUP3 SWAP1 MSTORE PUSH1 0x24 ADD PUSH2 0x399 JUMP JUMPDEST PUSH1 0x0 DUP2 DUP2 MSTORE PUSH1 0x20 DUP2 SWAP1 MSTORE PUSH1 0x40 SWAP1 KECCAK256 PUSH1 0x1 ADD SLOAD PUSH1 0x1 PUSH1 0x1 PUSH1 0xA0 SHL SUB AND CALLER EQ PUSH2 0xB73 JUMPI PUSH1 0x40 MLOAD PUSH4 0x216CCFD3 PUSH1 0xE1 SHL DUP2 MSTORE PUSH1 0x4 DUP2 ADD DUP3 SWAP1 MSTORE CALLER PUSH1 0x24 DUP3 ADD MSTORE PUSH1 0x44 ADD PUSH2 0x399 JUMP JUMPDEST PUSH1 0x0 DUP2 DUP2 MSTORE PUSH1 0x1 PUSH1 0x20 MSTORE PUSH1 0x40 SWAP1 KECCAK256 PUSH1 0x4 ADD SLOAD PUSH1 0xFF AND PUSH2 0xBA8 JUMPI PUSH1 0x40 MLOAD PUSH4 0xD838A115 PUSH1 0xE0 SHL DUP2 MSTORE PUSH1 0x4 DUP2 ADD DUP3 SWAP1 MSTORE PUSH1 0x24 ADD PUSH2 0x399 JUMP JUMPDEST POP PUSH1 0x1 ADD PUSH2 0xA8E JUMP JUMPDEST POP PUSH1 0x0 JUMPDEST DUP5 DUP2 LT ISZERO PUSH2 0xC58 JUMPI PUSH1 0x0 DUP7 DUP7 DUP4 DUP2 DUP2 LT PUSH2 0xBD1 JUMPI PUSH2 0xBD1 PUSH2 0x1354 JUMP JUMPDEST PUSH1 0x20 SWAP1 DUP2 MUL SWAP3 SWAP1 SWAP3 ADD CALLDATALOAD PUSH1 0x0 DUP2 DUP2 MSTORE SWAP3 DUP4 SWAP1 MSTORE PUSH1 0x40 SWAP1 SWAP3 KECCAK256 PUSH1 0x1 ADD SLOAD SWAP2 SWAP3 POP POP PUSH1 0x1 PUSH1 0x1 PUSH1 0xA0 SHL SUB AND PUSH2 0xC1A JUMPI PUSH1 0x40 MLOAD PUSH4 0x7CD98AB PUSH1 0xE5 SHL DUP2 MSTORE PUSH1 0x4 DUP2 ADD DUP3 SWAP1 MSTORE PUSH1 0x24 ADD PUSH2 0x399 JUMP JUMPDEST PUSH1 0x0 DUP2 DUP2 MSTORE PUSH1 0x1 PUSH1 0x20 MSTORE PUSH1 0x40 SWAP1 KECCAK256 PUSH1 0x4 ADD SLOAD PUSH1 0xFF AND PUSH2 0xC4F JUMPI PUSH1 0x40 MLOAD PUSH4 0xD838A115 PUSH1 0xE0 SHL DUP2 MSTORE PUSH1 0x4 DUP2 ADD DUP3 SWAP1 MSTORE PUSH1 0x24 ADD PUSH2 0x399 JUMP JUMPDEST POP PUSH1 0x1 ADD PUSH2 0xBB5 JUMP JUMPDEST POP PUSH2 0xCC8 DUP8 DUP8 DUP1 DUP1 PUSH1 0x20 MUL PUSH1 0x20 ADD PUSH1 0x40 MLOAD SWAP1 DUP2 ADD PUSH1 0x40 MSTORE DUP1 SWAP4 SWAP3 SWAP2 SWAP1 DUP2 DUP2 MSTORE PUSH1 0x20 ADD DUP4 DUP4 PUSH1 0x20 MUL DUP1 DUP3 DUP5 CALLDATACOPY PUSH1 0x0 SWAP3 ADD SWAP2 SWAP1 SWAP2 MSTORE POP POP PUSH1 0x40 DUP1 MLOAD PUSH1 0x20 DUP1 DUP12 MUL DUP3 DUP2 ADD DUP3 ADD SWAP1 SWAP4 MSTORE DUP11 DUP3 MSTORE SWAP1 SWAP4 POP DUP11 SWAP3 POP DUP10 SWAP2 DUP3 SWAP2 DUP6 ADD SWAP1 DUP5 SWAP1 DUP1 DUP3 DUP5 CALLDATACOPY PUSH1 0x0 SWAP3 ADD SWAP2 SWAP1 SWAP2 MSTORE POP DUP9 SWAP3 POP PUSH2 0x102F SWAP2 POP POP JUMP JUMPDEST PUSH2 0xCE5 JUMPI PUSH1 0x40 MLOAD PUSH4 0x8F54CE61 PUSH1 0xE0 SHL DUP2 MSTORE PUSH1 0x4 ADD PUSH1 0x40 MLOAD DUP1 SWAP2 SUB SWAP1 REVERT JUMPDEST PUSH1 0x0 DUP8 DUP8 DUP8 DUP8 PUSH1 0x40 MLOAD PUSH1 0x20 ADD PUSH2 0xCFE SWAP5 SWAP4 SWAP3 SWAP2 SWAP1 PUSH2 0x139C JUMP JUMPDEST PUSH1 0x40 DUP1 MLOAD PUSH1 0x1F NOT DUP2 DUP5 SUB ADD DUP2 MSTORE DUP3 DUP3 MSTORE DUP1 MLOAD PUSH1 0x20 SWAP2 DUP3 ADD KECCAK256 SWAP1 DUP4 ADD DUP8 SWAP1 MSTORE SWAP1 DUP3 ADD DUP2 SWAP1 MSTORE SWAP2 POP PUSH1 0x0 SWAP1 PUSH1 0x60 ADD PUSH1 0x40 MLOAD PUSH1 0x20 DUP2 DUP4 SUB SUB DUP2 MSTORE SWAP1 PUSH1 0x40 MSTORE DUP1 MLOAD SWAP1 PUSH1 0x20 ADD KECCAK256 SWAP1 POP DUP1 DUP5 EQ PUSH2 0xD62 JUMPI PUSH1 0x40 MLOAD PUSH4 0x3B09FF1F PUSH1 0xE2 SHL DUP2 MSTORE PUSH1 0x4 ADD PUSH1 0x40 MLOAD DUP1 SWAP2 SUB SWAP1 REVERT JUMPDEST DUP1 TIMESTAMP CALLER PUSH1 0x40 MLOAD PUSH1 0x20 ADD PUSH2 0xD9A SWAP4 SWAP3 SWAP2 SWAP1 SWAP3 DUP4 MSTORE PUSH1 0x20 DUP4 ADD SWAP2 SWAP1 SWAP2 MSTORE PUSH1 0x60 SHL PUSH12 0xFFFFFFFFFFFFFFFFFFFFFFFF NOT AND PUSH1 0x40 DUP3 ADD MSTORE PUSH1 0x54 ADD SWAP1 JUMP JUMPDEST PUSH1 0x40 MLOAD PUSH1 0x20 DUP2 DUP4 SUB SUB DUP2 MSTORE SWAP1 PUSH1 0x40 MSTORE DUP1 MLOAD SWAP1 PUSH1 0x20 ADD KECCAK256 SWAP3 POP PUSH1 0x40 MLOAD DUP1 PUSH1 0xA0 ADD PUSH1 0x40 MSTORE DUP1 DUP11 DUP11 DUP1 DUP1 PUSH1 0x20 MUL PUSH1 0x20 ADD PUSH1 0x40 MLOAD SWAP1 DUP2 ADD PUSH1 0x40 MSTORE DUP1 SWAP4 SWAP3 SWAP2 SWAP1 DUP2 DUP2 MSTORE PUSH1 0x20 ADD DUP4 DUP4 PUSH1 0x20 MUL DUP1 DUP3 DUP5 CALLDATACOPY PUSH1 0x0 SWAP3 ADD SWAP2 SWAP1 SWAP2 MSTORE POP POP POP SWAP1 DUP3 MSTORE POP PUSH1 0x40 DUP1 MLOAD PUSH1 0x20 DUP11 DUP2 MUL DUP3 DUP2 ADD DUP3 ADD SWAP1 SWAP4 MSTORE DUP11 DUP3 MSTORE SWAP3 DUP4 ADD SWAP3 SWAP1 SWAP2 DUP12 SWAP2 DUP12 SWAP2 DUP3 SWAP2 DUP6 ADD SWAP1 DUP5 SWAP1 DUP1 DUP3 DUP5 CALLDATACOPY PUSH1 0x0 SWAP3 ADD DUP3 SWAP1 MSTORE POP SWAP4 DUP6 MSTORE POP POP POP PUSH1 0x20 DUP1 DUP4 ADD DUP10 SWAP1 MSTORE PUSH1 0x40 DUP1 DUP5 ADD DUP10 SWAP1 MSTORE PUSH1 0x60 SWAP1 SWAP4 ADD DUP3 SWAP1 MSTORE DUP7 DUP3 MSTORE PUSH1 0x2 DUP2 MSTORE SWAP2 SWAP1 KECCAK256 DUP3 MLOAD DUP1 MLOAD SWAP2 SWAP3 PUSH2 0xE61 SWAP3 DUP5 SWAP3 SWAP1 SWAP2 ADD SWAP1 PUSH2 0x10AE JUMP JUMPDEST POP PUSH1 0x20 DUP3 DUP2 ADD MLOAD DUP1 MLOAD PUSH2 0xE7A SWAP3 PUSH1 0x1 DUP6 ADD SWAP3 ADD SWAP1 PUSH2 0x10AE JUMP JUMPDEST POP PUSH1 0x40 DUP3 ADD MLOAD PUSH1 0x2 DUP3 ADD SSTORE PUSH1 0x60 DUP3 ADD MLOAD PUSH1 0x3 DUP3 ADD SSTORE PUSH1 0x80 SWAP1 SWAP2 ADD MLOAD PUSH1 0x4 SWAP2 DUP3 ADD DUP1 SLOAD PUSH1 0xFF NOT AND SWAP2 ISZERO ISZERO SWAP2 SWAP1 SWAP2 OR SWAP1 SSTORE DUP1 SLOAD PUSH1 0x1 DUP2 ADD DUP3 SSTORE PUSH1 0x0 SWAP2 DUP3 MSTORE PUSH32 0x8A35ACFBC15FF81A39AE7D344FD709F28E8600B4AA8C65C6B64BFE7FE36BD19B ADD DUP5 SWAP1 SSTORE PUSH1 0x6 DUP1 SLOAD SWAP2 PUSH2 0xEE9 DUP4 PUSH2 0x133B JUMP JUMPDEST SWAP1 SWAP2 SSTORE POP POP PUSH1 0x40 MLOAD DUP4 SWAP1 PUSH32 0xEE4F8D3F28D7484641670775568C295B034D27B0E9D9978FBEE2AB15C7707094 SWAP1 PUSH1 0x0 SWAP1 LOG2 POP POP SWAP7 SWAP6 POP POP POP POP POP POP JUMP JUMPDEST PUSH1 0x4 DUP2 DUP2 SLOAD DUP2 LT PUSH2 0x6FA JUMPI PUSH1 0x0 DUP1 REVERT JUMPDEST PUSH1 0x40 DUP1 MLOAD PUSH1 0x20 DUP1 DUP3 ADD SWAP6 SWAP1 SWAP6 MSTORE DUP1 DUP3 ADD SWAP4 SWAP1 SWAP4 MSTORE PUSH12 0xFFFFFFFFFFFFFFFFFFFFFFFF NOT PUSH1 0x60 SWAP3 DUP4 SHL AND SWAP2 DUP4 ADD SWAP2 SWAP1 SWAP2 MSTORE DUP1 MLOAD PUSH1 0x54 DUP2 DUP5 SUB ADD DUP2 MSTORE PUSH1 0x74 SWAP1 SWAP3 ADD SWAP1 MSTORE DUP1 MLOAD SWAP2 ADD KECCAK256 SWAP1 JUMP JUMPDEST PUSH1 0x3 SLOAD PUSH1 0x0 JUMPDEST DUP2 DUP2 LT ISZERO PUSH2 0x102A JUMPI DUP3 PUSH1 0x3 DUP3 DUP2 SLOAD DUP2 LT PUSH2 0xF9F JUMPI PUSH2 0xF9F PUSH2 0x1354 JUMP JUMPDEST SWAP1 PUSH1 0x0 MSTORE PUSH1 0x20 PUSH1 0x0 KECCAK256 ADD SLOAD SUB PUSH2 0x1022 JUMPI PUSH1 0x3 PUSH2 0xFBC PUSH1 0x1 DUP5 PUSH2 0x13CE JUMP JUMPDEST DUP2 SLOAD DUP2 LT PUSH2 0xFCC JUMPI PUSH2 0xFCC PUSH2 0x1354 JUMP JUMPDEST SWAP1 PUSH1 0x0 MSTORE PUSH1 0x20 PUSH1 0x0 KECCAK256 ADD SLOAD PUSH1 0x3 DUP3 DUP2 SLOAD DUP2 LT PUSH2 0xFEA JUMPI PUSH2 0xFEA PUSH2 0x1354 JUMP JUMPDEST PUSH1 0x0 SWAP2 DUP3 MSTORE PUSH1 0x20 SWAP1 SWAP2 KECCAK256 ADD SSTORE PUSH1 0x3 DUP1 SLOAD DUP1 PUSH2 0x1007 JUMPI PUSH2 0x1007 PUSH2 0x13E1 JUMP JUMPDEST PUSH1 0x1 SWAP1 SUB DUP2 DUP2 SWAP1 PUSH1 0x0 MSTORE PUSH1 0x20 PUSH1 0x0 KECCAK256 ADD PUSH1 0x0 SWAP1 SSTORE SWAP1 SSTORE POP POP POP JUMP JUMPDEST PUSH1 0x1 ADD PUSH2 0xF83 JUMP JUMPDEST POP POP POP JUMP JUMPDEST PUSH1 0x0 DUP1 DUP1 DUP1 JUMPDEST DUP7 MLOAD DUP2 LT ISZERO PUSH2 0x1069 JUMPI DUP7 DUP2 DUP2 MLOAD DUP2 LT PUSH2 0x1050 JUMPI PUSH2 0x1050 PUSH2 0x1354 JUMP JUMPDEST PUSH1 0x20 MUL PUSH1 0x20 ADD ADD MLOAD DUP4 XOR SWAP3 POP DUP1 DUP1 PUSH1 0x1 ADD SWAP2 POP POP PUSH2 0x1035 JUMP JUMPDEST POP PUSH1 0x0 JUMPDEST DUP6 MLOAD DUP2 LT ISZERO PUSH2 0x10A1 JUMPI DUP6 DUP2 DUP2 MLOAD DUP2 LT PUSH2 0x1088 JUMPI PUSH2 0x1088 PUSH2 0x1354 JUMP JUMPDEST PUSH1 0x20 MUL PUSH1 0x20 ADD ADD MLOAD DUP3 XOR SWAP2 POP DUP1 DUP1 PUSH1 0x1 ADD SWAP2 POP POP PUSH2 0x106D JUMP JUMPDEST POP XOR DUP3 EQ SWAP1 POP SWAP4 SWAP3 POP POP POP JUMP JUMPDEST DUP3 DUP1 SLOAD DUP3 DUP3 SSTORE SWAP1 PUSH1 0x0 MSTORE PUSH1 0x20 PUSH1 0x0 KECCAK256 SWAP1 DUP2 ADD SWAP3 DUP3 ISZERO PUSH2 0x10E9 JUMPI SWAP2 PUSH1 0x20 MUL DUP3 ADD JUMPDEST DUP3 DUP2 GT ISZERO PUSH2 0x10E9 JUMPI DUP3 MLOAD DUP3 SSTORE SWAP2 PUSH1 0x20 ADD SWAP2 SWAP1 PUSH1 0x1 ADD SWAP1 PUSH2 0x10CE JUMP JUMPDEST POP PUSH2 0x10F5 SWAP3 SWAP2 POP PUSH2 0x10F9 JUMP JUMPDEST POP SWAP1 JUMP JUMPDEST JUMPDEST DUP1 DUP3 GT ISZERO PUSH2 0x10F5 JUMPI PUSH1 0x0 DUP2 SSTORE PUSH1 0x1 ADD PUSH2 0x10FA JUMP JUMPDEST PUSH1 0x0 DUP1 PUSH1 0x0 PUSH1 0x60 DUP5 DUP7 SUB SLT ISZERO PUSH2 0x1123 JUMPI PUSH1 0x0 DUP1 REVERT JUMPDEST DUP4 CALLDATALOAD SWAP3 POP PUSH1 0x20 DUP5 ADD CALLDATALOAD SWAP2 POP PUSH1 0x40 DUP5 ADD CALLDATALOAD PUSH1 0x1 PUSH1 0x1 PUSH1 0xA0 SHL SUB DUP2 AND DUP2 EQ PUSH2 0x1148 JUMPI PUSH1 0x0 DUP1 REVERT JUMPDEST DUP1 SWAP2 POP POP SWAP3 POP SWAP3 POP SWAP3 JUMP JUMPDEST PUSH1 0x0 PUSH1 0x20 DUP3 DUP5 SUB SLT ISZERO PUSH2 0x1165 JUMPI PUSH1 0x0 DUP1 REVERT JUMPDEST POP CALLDATALOAD SWAP2 SWAP1 POP JUMP JUMPDEST PUSH1 0x0 DUP2 MLOAD DUP1 DUP5 MSTORE PUSH1 0x20 DUP1 DUP6 ADD SWAP5 POP PUSH1 0x20 DUP5 ADD PUSH1 0x0 JUMPDEST DUP4 DUP2 LT ISZERO PUSH2 0x119D JUMPI DUP2 MLOAD DUP8 MSTORE SWAP6 DUP3 ADD SWAP6 SWAP1 DUP3 ADD SWAP1 PUSH1 0x1 ADD PUSH2 0x1181 JUMP JUMPDEST POP SWAP5 SWAP6 SWAP5 POP POP POP POP POP JUMP JUMPDEST PUSH1 0xA0 DUP2 MSTORE PUSH1 0x0 PUSH2 0x11BB PUSH1 0xA0 DUP4 ADD DUP9 PUSH2 0x116C JUMP JUMPDEST DUP3 DUP2 SUB PUSH1 0x20 DUP5 ADD MSTORE PUSH2 0x11CD DUP2 DUP9 PUSH2 0x116C JUMP JUMPDEST PUSH1 0x40 DUP5 ADD SWAP7 SWAP1 SWAP7 MSTORE POP POP PUSH1 0x60 DUP2 ADD SWAP3 SWAP1 SWAP3 MSTORE ISZERO ISZERO PUSH1 0x80 SWAP1 SWAP2 ADD MSTORE SWAP3 SWAP2 POP POP JUMP JUMPDEST PUSH1 0x0 DUP1 PUSH1 0x40 DUP4 DUP6 SUB SLT ISZERO PUSH2 0x1200 JUMPI PUSH1 0x0 DUP1 REVERT JUMPDEST POP POP DUP1 CALLDATALOAD SWAP3 PUSH1 0x20 SWAP1 SWAP2 ADD CALLDATALOAD SWAP2 POP JUMP JUMPDEST PUSH1 0x20 DUP2 MSTORE PUSH1 0x0 PUSH2 0x1222 PUSH1 0x20 DUP4 ADD DUP5 PUSH2 0x116C JUMP JUMPDEST SWAP4 SWAP3 POP POP POP JUMP JUMPDEST PUSH1 0x0 DUP1 PUSH1 0x0 DUP1 PUSH1 0x80 DUP6 DUP8 SUB SLT ISZERO PUSH2 0x123F JUMPI PUSH1 0x0 DUP1 REVERT JUMPDEST POP POP DUP3 CALLDATALOAD SWAP5 PUSH1 0x20 DUP5 ADD CALLDATALOAD SWAP5 POP PUSH1 0x40 DUP5 ADD CALLDATALOAD SWAP4 PUSH1 0x60 ADD CALLDATALOAD SWAP3 POP SWAP1 POP JUMP JUMPDEST PUSH1 0x0 DUP1 DUP4 PUSH1 0x1F DUP5 ADD SLT PUSH2 0x126D JUMPI PUSH1 0x0 DUP1 REVERT JUMPDEST POP DUP2 CALLDATALOAD PUSH8 0xFFFFFFFFFFFFFFFF DUP2 GT ISZERO PUSH2 0x1285 JUMPI PUSH1 0x0 DUP1 REVERT JUMPDEST PUSH1 0x20 DUP4 ADD SWAP2 POP DUP4 PUSH1 0x20 DUP3 PUSH1 0x5 SHL DUP6 ADD ADD GT ISZERO PUSH2 0x12A0 JUMPI PUSH1 0x0 DUP1 REVERT JUMPDEST SWAP3 POP SWAP3 SWAP1 POP JUMP JUMPDEST PUSH1 0x0 DUP1 PUSH1 0x0 DUP1 PUSH1 0x0 DUP1 PUSH1 0x80 DUP8 DUP10 SUB SLT ISZERO PUSH2 0x12C0 JUMPI PUSH1 0x0 DUP1 REVERT JUMPDEST DUP7 CALLDATALOAD PUSH8 0xFFFFFFFFFFFFFFFF DUP1 DUP3 GT ISZERO PUSH2 0x12D8 JUMPI PUSH1 0x0 DUP1 REVERT JUMPDEST PUSH2 0x12E4 DUP11 DUP4 DUP12 ADD PUSH2 0x125B JUMP JUMPDEST SWAP1 SWAP9 POP SWAP7 POP PUSH1 0x20 DUP10 ADD CALLDATALOAD SWAP2 POP DUP1 DUP3 GT ISZERO PUSH2 0x12FD JUMPI PUSH1 0x0 DUP1 REVERT JUMPDEST POP PUSH2 0x130A DUP10 DUP3 DUP11 ADD PUSH2 0x125B JUMP JUMPDEST SWAP8 SWAP11 SWAP7 SWAP10 POP SWAP8 PUSH1 0x40 DUP2 ADD CALLDATALOAD SWAP7 PUSH1 0x60 SWAP1 SWAP2 ADD CALLDATALOAD SWAP6 POP SWAP4 POP POP POP POP JUMP JUMPDEST PUSH4 0x4E487B71 PUSH1 0xE0 SHL PUSH1 0x0 MSTORE PUSH1 0x11 PUSH1 0x4 MSTORE PUSH1 0x24 PUSH1 0x0 REVERT JUMPDEST PUSH1 0x0 PUSH1 0x1 DUP3 ADD PUSH2 0x134D JUMPI PUSH2 0x134D PUSH2 0x1325 JUMP JUMPDEST POP PUSH1 0x1 ADD SWAP1 JUMP JUMPDEST PUSH4 0x4E487B71 PUSH1 0xE0 SHL PUSH1 0x0 MSTORE PUSH1 0x32 PUSH1 0x4 MSTORE PUSH1 0x24 PUSH1 0x0 REVERT JUMPDEST DUP2 DUP4 MSTORE PUSH1 0x0 PUSH1 0x1 PUSH1 0x1 PUSH1 0xFB SHL SUB DUP4 GT ISZERO PUSH2 0x1383 JUMPI PUSH1 0x0 DUP1 REVERT JUMPDEST DUP3 PUSH1 0x5 SHL DUP1 DUP4 PUSH1 0x20 DUP8 ADD CALLDATACOPY SWAP4 SWAP1 SWAP4 ADD PUSH1 0x20 ADD SWAP4 SWAP3 POP POP POP JUMP JUMPDEST PUSH1 0x40 DUP2 MSTORE PUSH1 0x0 PUSH2 0x13B0 PUSH1 0x40 DUP4 ADD DUP7 DUP9 PUSH2 0x136A JUMP JUMPDEST DUP3 DUP2 SUB PUSH1 0x20 DUP5 ADD MSTORE PUSH2 0x13C3 DUP2 DUP6 DUP8 PUSH2 0x136A JUMP JUMPDEST SWAP8 SWAP7 POP POP POP POP POP POP POP JUMP JUMPDEST DUP2 DUP2 SUB DUP2 DUP2 GT ISZERO PUSH2 0x6E4 JUMPI PUSH2 0x6E4 PUSH2 0x1325 JUMP JUMPDEST PUSH4 0x4E487B71 PUSH1 0xE0 SHL PUSH1 0x0 MSTORE PUSH1 0x31 PUSH1 0x4 MSTORE PUSH1 0x24 PUSH1 0x0 REVERT INVALID LOG2 PUSH5 0x6970667358 0x22 SLT KECCAK256 GASPRICE 0xC0 PUSH14 0x24E12F9BFAE1B180978C4A0A4800 CALL PUSH28 0xC8EF90335BFE9FE5316A532AF764736F6C6343000818003300000000 "},"methodIdentifiers":{"commitments(bytes32)":"839df945","computeCommitmentHash(bytes32,uint256,address)":"3136143c","createCommitment(bytes32,uint256)":"4b46ca0c","createTransaction(bytes32[],bytes32[],bytes32,bytes32)":"d5bbae71","finalizeTransaction(bytes32)":"b2efda83","getTransaction(bytes32)":"4aae13ca","getUtxoCount()":"400ed044","getUtxoSet()":"9c36e6f7","isUnspent(bytes32)":"5f20994d","mintCoinbase(bytes32,uint256,address)":"07e149f4","rangeProofs(bytes32)":"f495ac4c","submitRangeProof(bytes32,bytes32,uint256,bytes32)":"a8502c33","totalCommitments()":"78bb86d3","totalTransactions()":"b9a60038","transactionIds(uint256)":"e36f8dc5","transactions(bytes32)":"642f2eaf","utxoSet(uint256)":"8f9f114b"}}}}}