{
  "_format": "hh-sol-artifact-1",
  "contractName": "AnonymousMessaging",
  "sourceName": "contracts/AnonymousMessaging.sol",
  "abi": [
    {
      "constant": true,
      "inputs": [
        {
          "name": "",
          "type": "uint256"
        }
      ],
      "name": "messages",
      "outputs": [
        {
          "name": "content",
          "type": "string"
        },
        {
          "name": "timestamp",
          "type": "uint256"
        }
      ],
      "payable": false,
      "stateMutability": "view",
      "type": "function"
    },
    {
      "constant": false,
      "inputs": [
        {
          "name": "_content",
          "type": "string"
        },
        {
          "name": "_publicKeysX",
          "type": "uint256[]"
        },
        {
          "name": "_publicKeysY",
          "type": "uint256[]"
        },
        {
          "name": "_keyImage",
          "type": "uint256[2]"
        },
        {
          "name": "_c0",
          "type": "uint256"
        },
        {
          "name": "_s",
          "type": "uint256[]"
        }
      ],
      "name": "sendMessage",
      "outputs": [],
      "payable": false,
      "stateMutability": "nonpayable",
      "type": "function"
    },
    {
      "constant": true,
      "inputs": [
        {
          "name": "x1",
          "type": "uint256"
        },
        {
          "name": "y1",
          "type": "uint256"
        },
        {
          "name": "x2",
          "type": "uint256"
        },
        {
          "name": "y2",
          "type": "uint256"
        }
      ],
      "name": "Add",
      "outputs": [
        {
          "name": "x3",
          "type": "uint256"
        },
        {
          "name": "y3",
          "type": "uint256"
        }
      ],
      "payable": false,
      "stateMutability": "view",
      "type": "function"
    },
    {
      "constant": true,
      "inputs": [
        {
          "name": "scalar",
          "type": "uint256"
        }
      ],
      "name": "ScalarBaseMult",
      "outputs": [
        {
          "name": "qx",
          "type": "uint256"
        },
        {
          "name": "qy",
          "type": "uint256"
        }
      ],
      "payable": false,
      "stateMutability": "view",
      "type": "function"
    },
    {
      "constant": true,
      "inputs": [
        {
          "name": "x1",
          "type": "uint256"
        },
        {
          "name": "y1",
          "type": "uint256"
        }
      ],
      "name": "HashToEcc",
      "outputs": [
        {
          "name": "qx",
          "type": "uint256"
        },
        {
          "name": "qy",
          "type": "uint256"
        }
      ],
      "payable": false,
      "stateMutability": "view",
      "type": "function"
    },
    {
      "constant": true,
      "inputs": [
        {
          "name": "",
          "type": "bytes32"
        }
      ],
      "name": "usedKeyImages",
      "outputs": [
        {
          "name": "",
          "type": "bool"
        }
      ],
      "payable": false,
      "stateMutability": "view",
      "type": "function"
    },
    {
      "constant": true,
      "inputs": [
        {
          "name": "px",
          "type": "uint256"
        },
        {
          "name": "py",
          "type": "uint256"
        },
        {
          "name": "scalar",
          "type": "uint256"
        }
      ],
      "name": "ScalarMult",
      "outputs": [
        {
          "name": "qx",
          "type": "uint256"
        },
        {
          "name": "qy",
          "type": "uint256"
        }
      ],
      "payable": false,
      "stateMutability": "view",
      "type": "function"
    },
    {
      "inputs": [],
      "payable": false,
      "stateMutability": "nonpayable",
      "type": "constructor"
    },
    {
      "anonymous": false,
      "inputs": [
        {
          "indexed": false,
          "name": "content",
          "type": "string"
        },
        {
          "indexed": false,
          "name": "timestamp",
          "type": "uint256"
        }
      ],
      "name": "MessageSent",
      "type": "event"
    }
  ],
  "bytecode": "0x608060405234801561001057600080fd5b506116f0806100206000396000f300608060405260043610610083576000357c0100000000000000000000000000000000000000000000000000000000900463ffffffff1680630d80fefd146100885780630dccd1cd1461013557806339cd1f40146102a0578063464cb749146103065780637f77a40c1461034e578063e287a41a146103a0578063fb88954d146103e9575b600080fd5b34801561009457600080fd5b506100b360048036038101908080359060200190929190505050610445565b6040518080602001838152602001828103825284818151815260200191508051906020019080838360005b838110156100f95780820151818401526020810190506100de565b50505050905090810190601f1680156101265780820380516001836020036101000a031916815260200191505b50935050505060405180910390f35b34801561014157600080fd5b5061029e600480360381019080803590602001908201803590602001908080601f0160208091040260200160405190810160405280939291908181526020018383808284378201915050505050509192919290803590602001908201803590602001908080602002602001604051908101604052809392919081815260200183836020028082843782019150505050505091929192908035906020019082018035906020019080806020026020016040519081016040528093929190818152602001838360200280828437820191505050505050919291929080604001906002806020026040519081016040528092919082600260200280828437820191505050505091929192908035906020019092919080359060200190820180359060200190808060200260200160405190810160405280939291908181526020018383602002808284378201915050505050509192919290505050610510565b005b3480156102ac57600080fd5b506102e96004803603810190808035906020019092919080359060200190929190803590602001909291908035906020019092919050505061094e565b604051808381526020018281526020019250505060405180910390f35b34801561031257600080fd5b50610331600480360381019080803590602001909291905050506109e7565b604051808381526020018281526020019250505060405180910390f35b34801561035a57600080fd5b506103836004803603810190808035906020019092919080359060200190929190505050610ab9565b604051808381526020018281526020019250505060405180910390f35b3480156103ac57600080fd5b506103cf6004803603810190808035600019169060200190929190505050610bae565b604051808215151515815260200191505060405180910390f35b3480156103f557600080fd5b50610428600480360381019080803590602001909291908035906020019092919080359060200190929190505050610bce565b604051808381526020018281526020019250505060405180910390f35b60008181548110151561045457fe5b9060005260206000209060040201600091509050806000018054600181600116156101000203166002900480601f0160208091040260200160405190810160405280929190818152602001828054600181600116156101000203166002900480156105005780601f106104d557610100808354040283529160200191610500565b820191906000526020600020905b8154815290600101906020018083116104e357829003601f168201915b5050505050908060010154905082565b60008084600060028110151561052257fe5b602002015185600160028110151561053657fe5b602002015160405160200180838152602001828152602001925050506040516020818303038152906040526040518082805190602001908083835b6020831015156105965780518252602082019150602081019050602083039250610571565b6001836020036101000a038019825116818451168082178552505050505050905001915050604051809103902091506000151560016000846000191660001916815260200190815260200160002060009054906101000a900460ff16151514151561068f576040517f08c379a000000000000000000000000000000000000000000000000000000000815260040180806020018281038252602e8152602001807f4572726f723a20546869732073656e6465722068617320616c7265616479207381526020017f656e742061206d6573736167652100000000000000000000000000000000000081525060400191505060405180910390fd5b876040516020018082805190602001908083835b6020831015156106c857805182526020820191506020810190506020830392506106a3565b6001836020036101000a0380198251168184511680821785525050505050509050019150506040516020818303038152906040526040518082805190602001908083835b602083101515610731578051825260208201915060208101905060208303925061070c565b6001836020036101000a0380198251168184511680821785525050505050509050019150506040518091039020905061076e818888888888610c63565b15156107e2576040517f08c379a000000000000000000000000000000000000000000000000000000000815260040180806020018281038252601e8152602001807f4572726f723a20496e76616c69642072696e67207369676e617475726521000081525060200191505060405180910390fd5b6001806000846000191660001916815260200190815260200160002060006101000a81548160ff02191690831515021790555060006060604051908101604052808a81526020014281526020018781525090806001815401808255809150509060018203906000526020600020906004020160009091929091909150600082015181600001908051906020019061087a9291906115df565b506020820151816001015560408201518160020190600261089c92919061165f565b505050507f4d77a06ccd7c0e342e07d9754e88be641687d85dd2b41cb0473e25f939e84f4b88426040518080602001838152602001828103825284818151815260200191508051906020019080838360005b838110156109095780820151818401526020810190506108ee565b50505050905090810190601f1680156109365780820380516001836020036101000a031916815260200191505b50935050505060405180910390a15050505050505050565b6000806000806000610966898960018a8a6001610f4e565b80935081945082955050505061097b81611171565b90507ffffffffffffffffffffffffffffffffffffffffffffffffffffffffefffffc2f8015156109a757fe5b81840994507ffffffffffffffffffffffffffffffffffffffffffffffffffffffffefffffc2f8015156109d657fe5b818309935050505094509492505050565b6000806000806000610a3c867f79be667ef9dcbbac55a06295ce870b07029bfcdb2dce28d959f2815b16f817987f483ada7726a3c4655da4fbfc0e1108a8fd17b448a68554199c47d08ffb10d4b86001611265565b809350819450829550505050610a5181611171565b90507ffffffffffffffffffffffffffffffffffffffffffffffffffffffffefffffc2f801515610a7d57fe5b81840994507ffffffffffffffffffffffffffffffffffffffffffffffffffffffffefffffc2f801515610aac57fe5b8183099350505050915091565b6000806000806000610b2f878760405180838152602001828152602001925050506040518091039020600190047f79be667ef9dcbbac55a06295ce870b07029bfcdb2dce28d959f2815b16f817987f483ada7726a3c4655da4fbfc0e1108a8fd17b448a68554199c47d08ffb10d4b86001611265565b809350819450829550505050610b4481611171565b90507ffffffffffffffffffffffffffffffffffffffffffffffffffffffffefffffc2f801515610b7057fe5b81840994507ffffffffffffffffffffffffffffffffffffffffffffffffffffffffefffffc2f801515610b9f57fe5b81830993505050509250929050565b60016020528060005260406000206000915054906101000a900460ff1681565b6000806000806000610be38689896001611265565b809350819450829550505050610bf881611171565b90507ffffffffffffffffffffffffffffffffffffffffffffffffffffffffefffffc2f801515610c2457fe5b81840994507ffffffffffffffffffffffffffffffffffffffffffffffffffffffffefffffc2f801515610c5357fe5b8183099350505050935093915050565b60008060008060008060008060008c518e51148015610c83575089518e51145b1515610cf7576040517f08c379a000000000000000000000000000000000000000000000000000000000815260040180806020018281038252601e8152602001807f4572726f723a204172726179206c656e67746873206d69736d6174636821000081525060200191505060405180910390fd5b60008e51111515610d70576040517f08c379a000000000000000000000000000000000000000000000000000000000815260040180806020018281038252601c8152602001807f4572726f723a2052696e672063616e6e6f7420626520656d707479210000000081525060200191505060405180910390fd5b8a9750600090505b8d51811015610f3757610de58a82815181101515610d9257fe5b906020019060200201517f79be667ef9dcbbac55a06295ce870b07029bfcdb2dce28d959f2815b16f817987f483ada7726a3c4655da4fbfc0e1108a8fd17b448a68554199c47d08ffb10d4b86001611265565b809750819850829950505050610e2c888f83815181101515610e0357fe5b906020019060200201518f84815181101515610e1b57fe5b906020019060200201516001611265565b809450819550829650505050610e488787600187876001610f4e565b8097508198508299505050508e87878e6000600281101515610e6657fe5b60200201518f6001600281101515610e7a57fe5b6020020151604051602001808660001916600019168152602001858152602001848152602001838152602001828152602001955050505050506040516020818303038152906040526040518082805190602001908083835b602083101515610ef75780518252602082019150602081019050602083039250610ed2565b6001836020036101000a03801982511681845116808217855250505050505090500191505060405180910390206001900497508080600101915050610d78565b8a8814985050505050505050509695505050505050565b6000806000806000806000808d148015610f68575060008c145b15610f7b57898989965096509650611161565b60008a148015610f8b5750600089145b15610f9e578c8c8c965096509650611161565b898d148015610fac5750888c145b1561100c57610fbd8d8c8f8e61132d565b8094508195505050610fd384846003600161132d565b8094508195505050610fe984846000600161139b565b8094508195505050610fff8c8c6002600161132d565b8092508193505050611035565b61101889898e8e611461565b809450819550505061102c8a898f8e611461565b80925081935050505b61104184848484611549565b80945081955050506110558484868661132d565b809350819850505061106987838f8e611461565b809350819850505061107d87838c8b611461565b80935081985050506110918d8c8985611461565b80925081975050506110a58682868661132d565b80925081975050506110b986828e8e611461565b8092508197505050808214151561115c577ffffffffffffffffffffffffffffffffffffffffffffffffffffffffefffffc2f8015156110f457fe5b81880996507ffffffffffffffffffffffffffffffffffffffffffffffffffffffffefffffc2f80151561112357fe5b82870995507ffffffffffffffffffffffffffffffffffffffffffffffffffffffffefffffc2f80151561115257fe5b8183099450611160565b8194505b5b5050505096509650969350505050565b60008060008060008060009450600193507ffffffffffffffffffffffffffffffffffffffffffffffffffffffffefffffc2f92508691505b6000821415156112585781838115156111be57fe5b049050837ffffffffffffffffffffffffffffffffffffffffffffffffffffffffefffffc2f8015156111ec57fe5b7ffffffffffffffffffffffffffffffffffffffffffffffffffffffffefffffc2f80151561121657fe5b8684097ffffffffffffffffffffffffffffffffffffffffffffffffffffffffefffffc2f038708809550819650505081828202840380935081945050506111a9565b8495505050505050919050565b6000806000806000806000806000808d96508c95508b94508a935060009250600091506001905060008e14156112ae57600080600182925081915080905099509950995061131c565b5b60008714151561130c576000600188161415156112e1576112d4838383898989610f4e565b8093508194508295505050505b6002878115156112ed57fe5b0496506112fb8686866115b7565b8096508197508298505050506112af565b828282809a50819b50829c505050505b505050505050509450945094915050565b6000807ffffffffffffffffffffffffffffffffffffffffffffffffffffffffefffffc2f80151561135a57fe5b8487097ffffffffffffffffffffffffffffffffffffffffffffffffffffffffefffffc2f80151561138757fe5b848709809250819350505094509492505050565b6000807ffffffffffffffffffffffffffffffffffffffffffffffffffffffffefffffc2f8015156113c857fe5b7ffffffffffffffffffffffffffffffffffffffffffffffffffffffffefffffc2f8015156113f257fe5b8686097ffffffffffffffffffffffffffffffffffffffffffffffffffffffffefffffc2f80151561141f57fe5b888609087ffffffffffffffffffffffffffffffffffffffffffffffffffffffffefffffc2f80151561144d57fe5b848709809250819350505094509492505050565b6000807ffffffffffffffffffffffffffffffffffffffffffffffffffffffffefffffc2f80151561148e57fe5b7ffffffffffffffffffffffffffffffffffffffffffffffffffffffffefffffc2f8015156114b857fe5b86867ffffffffffffffffffffffffffffffffffffffffffffffffffffffffefffffc2f03097ffffffffffffffffffffffffffffffffffffffffffffffffffffffffefffffc2f80151561150757fe5b888609087ffffffffffffffffffffffffffffffffffffffffffffffffffffffffefffffc2f80151561153557fe5b848709809250819350505094509492505050565b6000807ffffffffffffffffffffffffffffffffffffffffffffffffffffffffefffffc2f80151561157657fe5b8387097ffffffffffffffffffffffffffffffffffffffffffffffffffffffffefffffc2f8015156115a357fe5b858709809250819350505094509492505050565b60008060006115ca868686898989610f4e565b80935081945082955050505093509350939050565b828054600181600116156101000203166002900490600052602060002090601f016020900481019282601f1061162057805160ff191683800117855561164e565b8280016001018555821561164e579182015b8281111561164d578251825591602001919060010190611632565b5b50905061165b919061169f565b5090565b826002810192821561168e579160200282015b8281111561168d578251825591602001919060010190611672565b5b50905061169b919061169f565b5090565b6116c191905b808211156116bd5760008160009055506001016116a5565b5090565b905600a165627a7a72305820c8f3e789c82fa9e2f0ddccfc0276f96f73a3932ad294331c29e321c7d4325afb0029",
  "linkReferences": {},
  "deployedLinkReferences": {}
}